{
  "contractName": "Ecertify",
  "abi": [
    {
      "inputs": [
        {
          "internalType": "uint256",
          "name": "",
          "type": "uint256"
        }
      ],
      "name": "allCertificates",
      "outputs": [
        {
          "internalType": "uint256",
          "name": "certid",
          "type": "uint256"
        },
        {
          "internalType": "string",
          "name": "transactionHash",
          "type": "string"
        },
        {
          "internalType": "string",
          "name": "name",
          "type": "string"
        },
        {
          "internalType": "string",
          "name": "course",
          "type": "string"
        },
        {
          "internalType": "string",
          "name": "email",
          "type": "string"
        },
        {
          "internalType": "uint256",
          "name": "passoutYear",
          "type": "uint256"
        },
        {
          "internalType": "string",
          "name": "percentage",
          "type": "string"
        },
        {
          "internalType": "uint256",
          "name": "SAP",
          "type": "uint256"
        },
        {
          "internalType": "uint256",
          "name": "contact",
          "type": "uint256"
        },
        {
          "internalType": "string",
          "name": "issueDate",
          "type": "string"
        },
        {
          "internalType": "string",
          "name": "gender",
          "type": "string"
        },
        {
          "internalType": "string",
          "name": "highestDegree",
          "type": "string"
        }
      ],
      "stateMutability": "view",
      "type": "function",
      "constant": true
    },
    {
      "inputs": [
        {
          "internalType": "string",
          "name": "",
          "type": "string"
        }
      ],
      "name": "allhashedCertificates",
      "outputs": [
        {
          "internalType": "uint256",
          "name": "certid",
          "type": "uint256"
        },
        {
          "internalType": "string",
          "name": "transactionHash",
          "type": "string"
        },
        {
          "internalType": "string",
          "name": "name",
          "type": "string"
        },
        {
          "internalType": "string",
          "name": "course",
          "type": "string"
        },
        {
          "internalType": "string",
          "name": "email",
          "type": "string"
        },
        {
          "internalType": "uint256",
          "name": "passoutYear",
          "type": "uint256"
        },
        {
          "internalType": "string",
          "name": "percentage",
          "type": "string"
        },
        {
          "internalType": "uint256",
          "name": "SAP",
          "type": "uint256"
        },
        {
          "internalType": "uint256",
          "name": "contact",
          "type": "uint256"
        },
        {
          "internalType": "string",
          "name": "issueDate",
          "type": "string"
        },
        {
          "internalType": "string",
          "name": "gender",
          "type": "string"
        },
        {
          "internalType": "string",
          "name": "highestDegree",
          "type": "string"
        }
      ],
      "stateMutability": "view",
      "type": "function",
      "constant": true
    },
    {
      "inputs": [
        {
          "internalType": "string",
          "name": "",
          "type": "string"
        }
      ],
      "name": "certficateHashExist",
      "outputs": [
        {
          "internalType": "bool",
          "name": "",
          "type": "bool"
        }
      ],
      "stateMutability": "view",
      "type": "function",
      "constant": true
    },
    {
      "inputs": [],
      "name": "certificateCounter",
      "outputs": [
        {
          "internalType": "uint256",
          "name": "",
          "type": "uint256"
        }
      ],
      "stateMutability": "view",
      "type": "function",
      "constant": true
    },
    {
      "inputs": [
        {
          "internalType": "string",
          "name": "_name",
          "type": "string"
        },
        {
          "internalType": "string",
          "name": "_course",
          "type": "string"
        },
        {
          "internalType": "string",
          "name": "_email",
          "type": "string"
        },
        {
          "internalType": "uint256",
          "name": "_passoutYear",
          "type": "uint256"
        },
        {
          "internalType": "string",
          "name": "_percentage",
          "type": "string"
        },
        {
          "internalType": "uint256",
          "name": "_SAP",
          "type": "uint256"
        },
        {
          "internalType": "uint256",
          "name": "_phone",
          "type": "uint256"
        },
        {
          "internalType": "string",
          "name": "_issueDate",
          "type": "string"
        },
        {
          "internalType": "string",
          "name": "_gender",
          "type": "string"
        },
        {
          "internalType": "string",
          "name": "_highestDegree",
          "type": "string"
        }
      ],
      "name": "addCertificate",
      "outputs": [],
      "stateMutability": "nonpayable",
      "type": "function"
    },
    {
      "inputs": [
        {
          "internalType": "string",
          "name": "_transactionHash",
          "type": "string"
        }
      ],
      "name": "updateTransaction",
      "outputs": [],
      "stateMutability": "nonpayable",
      "type": "function"
    },
    {
      "inputs": [
        {
          "internalType": "string",
          "name": "userAddress",
          "type": "string"
        }
      ],
      "name": "getValueAtMapping",
      "outputs": [
        {
          "components": [
            {
              "internalType": "uint256",
              "name": "certid",
              "type": "uint256"
            },
            {
              "internalType": "string",
              "name": "transactionHash",
              "type": "string"
            },
            {
              "internalType": "string",
              "name": "name",
              "type": "string"
            },
            {
              "internalType": "string",
              "name": "course",
              "type": "string"
            },
            {
              "internalType": "string",
              "name": "email",
              "type": "string"
            },
            {
              "internalType": "uint256",
              "name": "passoutYear",
              "type": "uint256"
            },
            {
              "internalType": "string",
              "name": "percentage",
              "type": "string"
            },
            {
              "internalType": "uint256",
              "name": "SAP",
              "type": "uint256"
            },
            {
              "internalType": "uint256",
              "name": "contact",
              "type": "uint256"
            },
            {
              "internalType": "string",
              "name": "issueDate",
              "type": "string"
            },
            {
              "internalType": "string",
              "name": "gender",
              "type": "string"
            },
            {
              "internalType": "string",
              "name": "highestDegree",
              "type": "string"
            }
          ],
          "internalType": "struct Ecertify.Certificate",
          "name": "",
          "type": "tuple"
        }
      ],
      "stateMutability": "view",
      "type": "function",
      "constant": true
    }
  ],
  "bytecode": "0x608060405234801561001057600080fd5b506123b7806100206000396000f3fe608060405234801561001057600080fd5b506004361061007d5760003560e01c806367764b261161005b57806367764b2614610114578063d3a3f08214610132578063dbdd28cf14610162578063f31125cf146101925761007d565b8063053c8e25146100825780631daeed11146100bd5780631e830c3f146100d9575b600080fd5b61009c60048036038101906100979190611ed7565b6101ae565b6040516100b49c9b9a99989796959493929190612174565b60405180910390f35b6100d760048036038101906100d29190611d54565b6106ce565b005b6100f360048036038101906100ee9190611d13565b6108a5565b60405161010b9c9b9a99989796959493929190612174565b60405180910390f35b61011c610ddb565b6040516101299190612159565b60405180910390f35b61014c60048036038101906101479190611d13565b610de1565b604051610159919061211c565b60405180910390f35b61017c60048036038101906101779190611d13565b610e17565b6040516101899190612137565b60405180910390f35b6101ac60048036038101906101a79190611d13565b611388565b005b6001602052806000526040600020600091509050806000015490806001018054600181600116156101000203166002900480601f0160208091040260200160405190810160405280929190818152602001828054600181600116156101000203166002900480156102605780601f1061023557610100808354040283529160200191610260565b820191906000526020600020905b81548152906001019060200180831161024357829003601f168201915b505050505090806002018054600181600116156101000203166002900480601f0160208091040260200160405190810160405280929190818152602001828054600181600116156101000203166002900480156102fe5780601f106102d3576101008083540402835291602001916102fe565b820191906000526020600020905b8154815290600101906020018083116102e157829003601f168201915b505050505090806003018054600181600116156101000203166002900480601f01602080910402602001604051908101604052809291908181526020018280546001816001161561010002031660029004801561039c5780601f106103715761010080835404028352916020019161039c565b820191906000526020600020905b81548152906001019060200180831161037f57829003601f168201915b505050505090806004018054600181600116156101000203166002900480601f01602080910402602001604051908101604052809291908181526020018280546001816001161561010002031660029004801561043a5780601f1061040f5761010080835404028352916020019161043a565b820191906000526020600020905b81548152906001019060200180831161041d57829003601f168201915b505050505090806005015490806006018054600181600116156101000203166002900480601f0160208091040260200160405190810160405280929190818152602001828054600181600116156101000203166002900480156104de5780601f106104b3576101008083540402835291602001916104de565b820191906000526020600020905b8154815290600101906020018083116104c157829003601f168201915b505050505090806007015490806008015490806009018054600181600116156101000203166002900480601f0160208091040260200160405190810160405280929190818152602001828054600181600116156101000203166002900480156105885780601f1061055d57610100808354040283529160200191610588565b820191906000526020600020905b81548152906001019060200180831161056b57829003601f168201915b50505050509080600a018054600181600116156101000203166002900480601f0160208091040260200160405190810160405280929190818152602001828054600181600116156101000203166002900480156106265780601f106105fb57610100808354040283529160200191610626565b820191906000526020600020905b81548152906001019060200180831161060957829003601f168201915b50505050509080600b018054600181600116156101000203166002900480601f0160208091040260200160405190810160405280929190818152602001828054600181600116156101000203166002900480156106c45780601f10610699576101008083540402835291602001916106c4565b820191906000526020600020905b8154815290600101906020018083116106a757829003601f168201915b505050505090508c565b6000808154809291906001019190505550600060405180610180016040528060005481526020016040518060400160405280600381526020017f307830000000000000000000000000000000000000000000000000000000000081525081526020018c81526020018b81526020018a81526020018981526020018881526020018781526020018681526020018581526020018481526020018381525090508060016000805481526020019081526020016000206000820151816000015560208201518160010190805190602001906107a7929190611b8a565b5060408201518160020190805190602001906107c4929190611b8a565b5060608201518160030190805190602001906107e1929190611b8a565b5060808201518160040190805190602001906107fe929190611b8a565b5060a0820151816005015560c0820151816006019080519060200190610825929190611b8a565b5060e082015181600701556101008201518160080155610120820151816009019080519060200190610858929190611b8a565b5061014082015181600a019080519060200190610876929190611b8a565b5061016082015181600b019080519060200190610894929190611b8a565b509050505050505050505050505050565b600281805160208101820180518482526020830160208501208183528095505050505050600091509050806000015490806001018054600181600116156101000203166002900480601f01602080910402602001604051908101604052809291908181526020018280546001816001161561010002031660029004801561096d5780601f106109425761010080835404028352916020019161096d565b820191906000526020600020905b81548152906001019060200180831161095057829003601f168201915b505050505090806002018054600181600116156101000203166002900480601f016020809104026020016040519081016040528092919081815260200182805460018160011615610100020316600290048015610a0b5780601f106109e057610100808354040283529160200191610a0b565b820191906000526020600020905b8154815290600101906020018083116109ee57829003601f168201915b505050505090806003018054600181600116156101000203166002900480601f016020809104026020016040519081016040528092919081815260200182805460018160011615610100020316600290048015610aa95780601f10610a7e57610100808354040283529160200191610aa9565b820191906000526020600020905b815481529060010190602001808311610a8c57829003601f168201915b505050505090806004018054600181600116156101000203166002900480601f016020809104026020016040519081016040528092919081815260200182805460018160011615610100020316600290048015610b475780601f10610b1c57610100808354040283529160200191610b47565b820191906000526020600020905b815481529060010190602001808311610b2a57829003601f168201915b505050505090806005015490806006018054600181600116156101000203166002900480601f016020809104026020016040519081016040528092919081815260200182805460018160011615610100020316600290048015610beb5780601f10610bc057610100808354040283529160200191610beb565b820191906000526020600020905b815481529060010190602001808311610bce57829003601f168201915b505050505090806007015490806008015490806009018054600181600116156101000203166002900480601f016020809104026020016040519081016040528092919081815260200182805460018160011615610100020316600290048015610c955780601f10610c6a57610100808354040283529160200191610c95565b820191906000526020600020905b815481529060010190602001808311610c7857829003601f168201915b50505050509080600a018054600181600116156101000203166002900480601f016020809104026020016040519081016040528092919081815260200182805460018160011615610100020316600290048015610d335780601f10610d0857610100808354040283529160200191610d33565b820191906000526020600020905b815481529060010190602001808311610d1657829003601f168201915b50505050509080600b018054600181600116156101000203166002900480601f016020809104026020016040519081016040528092919081815260200182805460018160011615610100020316600290048015610dd15780601f10610da657610100808354040283529160200191610dd1565b820191906000526020600020905b815481529060010190602001808311610db457829003601f168201915b505050505090508c565b60005481565b6003818051602081018201805184825260208301602085012081835280955050505050506000915054906101000a900460ff1681565b610e1f611c18565b600282604051610e2f9190612105565b90815260200160405180910390206040518061018001604052908160008201548152602001600182018054600181600116156101000203166002900480601f016020809104026020016040519081016040528092919081815260200182805460018160011615610100020316600290048015610eec5780601f10610ec157610100808354040283529160200191610eec565b820191906000526020600020905b815481529060010190602001808311610ecf57829003601f168201915b50505050508152602001600282018054600181600116156101000203166002900480601f016020809104026020016040519081016040528092919081815260200182805460018160011615610100020316600290048015610f8e5780601f10610f6357610100808354040283529160200191610f8e565b820191906000526020600020905b815481529060010190602001808311610f7157829003601f168201915b50505050508152602001600382018054600181600116156101000203166002900480601f0160208091040260200160405190810160405280929190818152602001828054600181600116156101000203166002900480156110305780601f1061100557610100808354040283529160200191611030565b820191906000526020600020905b81548152906001019060200180831161101357829003601f168201915b50505050508152602001600482018054600181600116156101000203166002900480601f0160208091040260200160405190810160405280929190818152602001828054600181600116156101000203166002900480156110d25780601f106110a7576101008083540402835291602001916110d2565b820191906000526020600020905b8154815290600101906020018083116110b557829003601f168201915b5050505050815260200160058201548152602001600682018054600181600116156101000203166002900480601f01602080910402602001604051908101604052809291908181526020018280546001816001161561010002031660029004801561117e5780601f106111535761010080835404028352916020019161117e565b820191906000526020600020905b81548152906001019060200180831161116157829003601f168201915b505050505081526020016007820154815260200160088201548152602001600982018054600181600116156101000203166002900480601f0160208091040260200160405190810160405280929190818152602001828054600181600116156101000203166002900480156112345780601f1061120957610100808354040283529160200191611234565b820191906000526020600020905b81548152906001019060200180831161121757829003601f168201915b50505050508152602001600a82018054600181600116156101000203166002900480601f0160208091040260200160405190810160405280929190818152602001828054600181600116156101000203166002900480156112d65780601f106112ab576101008083540402835291602001916112d6565b820191906000526020600020905b8154815290600101906020018083116112b957829003601f168201915b50505050508152602001600b82018054600181600116156101000203166002900480601f0160208091040260200160405190810160405280929190818152602001828054600181600116156101000203166002900480156113785780601f1061134d57610100808354040283529160200191611378565b820191906000526020600020905b81548152906001019060200180831161135b57829003601f168201915b5050505050815250509050919050565b600060016000805481526020019081526020016000206040518061018001604052908160008201548152602001600182018054600181600116156101000203166002900480601f01602080910402602001604051908101604052809291908181526020018280546001816001161561010002031660029004801561144d5780601f106114225761010080835404028352916020019161144d565b820191906000526020600020905b81548152906001019060200180831161143057829003601f168201915b50505050508152602001600282018054600181600116156101000203166002900480601f0160208091040260200160405190810160405280929190818152602001828054600181600116156101000203166002900480156114ef5780601f106114c4576101008083540402835291602001916114ef565b820191906000526020600020905b8154815290600101906020018083116114d257829003601f168201915b50505050508152602001600382018054600181600116156101000203166002900480601f0160208091040260200160405190810160405280929190818152602001828054600181600116156101000203166002900480156115915780601f1061156657610100808354040283529160200191611591565b820191906000526020600020905b81548152906001019060200180831161157457829003601f168201915b50505050508152602001600482018054600181600116156101000203166002900480601f0160208091040260200160405190810160405280929190818152602001828054600181600116156101000203166002900480156116335780601f1061160857610100808354040283529160200191611633565b820191906000526020600020905b81548152906001019060200180831161161657829003601f168201915b5050505050815260200160058201548152602001600682018054600181600116156101000203166002900480601f0160208091040260200160405190810160405280929190818152602001828054600181600116156101000203166002900480156116df5780601f106116b4576101008083540402835291602001916116df565b820191906000526020600020905b8154815290600101906020018083116116c257829003601f168201915b505050505081526020016007820154815260200160088201548152602001600982018054600181600116156101000203166002900480601f0160208091040260200160405190810160405280929190818152602001828054600181600116156101000203166002900480156117955780601f1061176a57610100808354040283529160200191611795565b820191906000526020600020905b81548152906001019060200180831161177857829003601f168201915b50505050508152602001600a82018054600181600116156101000203166002900480601f0160208091040260200160405190810160405280929190818152602001828054600181600116156101000203166002900480156118375780601f1061180c57610100808354040283529160200191611837565b820191906000526020600020905b81548152906001019060200180831161181a57829003601f168201915b50505050508152602001600b82018054600181600116156101000203166002900480601f0160208091040260200160405190810160405280929190818152602001828054600181600116156101000203166002900480156118d95780601f106118ae576101008083540402835291602001916118d9565b820191906000526020600020905b8154815290600101906020018083116118bc57829003601f168201915b5050505050815250509050818160200181905250806001600080548152602001908152602001600020600082015181600001556020820151816001019080519060200190611928929190611b8a565b506040820151816002019080519060200190611945929190611b8a565b506060820151816003019080519060200190611962929190611b8a565b50608082015181600401908051906020019061197f929190611b8a565b5060a0820151816005015560c08201518160060190805190602001906119a6929190611b8a565b5060e0820151816007015561010082015181600801556101208201518160090190805190602001906119d9929190611b8a565b5061014082015181600a0190805190602001906119f7929190611b8a565b5061016082015181600b019080519060200190611a15929190611b8a565b5090505080600283604051611a2a9190612105565b9081526020016040518091039020600082015181600001556020820151816001019080519060200190611a5e929190611b8a565b506040820151816002019080519060200190611a7b929190611b8a565b506060820151816003019080519060200190611a98929190611b8a565b506080820151816004019080519060200190611ab5929190611b8a565b5060a0820151816005015560c0820151816006019080519060200190611adc929190611b8a565b5060e082015181600701556101008201518160080155610120820151816009019080519060200190611b0f929190611b8a565b5061014082015181600a019080519060200190611b2d929190611b8a565b5061016082015181600b019080519060200190611b4b929190611b8a565b509050506001600383604051611b619190612105565b908152602001604051809103902060006101000a81548160ff0219169083151502179055505050565b828054600181600116156101000203166002900490600052602060002090601f016020900481019282611bc05760008555611c07565b82601f10611bd957805160ff1916838001178555611c07565b82800160010185558215611c07579182015b82811115611c06578251825591602001919060010190611beb565b5b509050611c149190611c79565b5090565b6040518061018001604052806000815260200160608152602001606081526020016060815260200160608152602001600081526020016060815260200160008152602001600081526020016060815260200160608152602001606081525090565b5b80821115611c92576000816000905550600101611c7a565b5090565b6000611ca9611ca484612297565b612266565b905082815260208101848484011115611cc157600080fd5b611ccc848285612315565b509392505050565b600082601f830112611ce557600080fd5b8135611cf5848260208601611c96565b91505092915050565b600081359050611d0d8161236a565b92915050565b600060208284031215611d2557600080fd5b600082013567ffffffffffffffff811115611d3f57600080fd5b611d4b84828501611cd4565b91505092915050565b6000806000806000806000806000806101408b8d031215611d7457600080fd5b60008b013567ffffffffffffffff811115611d8e57600080fd5b611d9a8d828e01611cd4565b9a505060208b013567ffffffffffffffff811115611db757600080fd5b611dc38d828e01611cd4565b99505060408b013567ffffffffffffffff811115611de057600080fd5b611dec8d828e01611cd4565b9850506060611dfd8d828e01611cfe565b97505060808b013567ffffffffffffffff811115611e1a57600080fd5b611e268d828e01611cd4565b96505060a0611e378d828e01611cfe565b95505060c0611e488d828e01611cfe565b94505060e08b013567ffffffffffffffff811115611e6557600080fd5b611e718d828e01611cd4565b9350506101008b013567ffffffffffffffff811115611e8f57600080fd5b611e9b8d828e01611cd4565b9250506101208b013567ffffffffffffffff811115611eb957600080fd5b611ec58d828e01611cd4565b9150509295989b9194979a5092959850565b600060208284031215611ee957600080fd5b6000611ef784828501611cfe565b91505092915050565b611f09816122ff565b82525050565b6000611f1a826122c7565b611f2481856122d2565b9350611f34818560208601612324565b611f3d81612359565b840191505092915050565b6000611f53826122c7565b611f5d81856122e3565b9350611f6d818560208601612324565b611f7681612359565b840191505092915050565b6000611f8c826122c7565b611f9681856122f4565b9350611fa6818560208601612324565b80840191505092915050565b600061018083016000830151611fcb60008601826120e7565b5060208301518482036020860152611fe38282611f0f565b91505060408301518482036040860152611ffd8282611f0f565b915050606083015184820360608601526120178282611f0f565b915050608083015184820360808601526120318282611f0f565b91505060a083015161204660a08601826120e7565b5060c083015184820360c086015261205e8282611f0f565b91505060e083015161207360e08601826120e7565b506101008301516120886101008601826120e7565b506101208301518482036101208601526120a28282611f0f565b9150506101408301518482036101408601526120be8282611f0f565b9150506101608301518482036101608601526120da8282611f0f565b9150508091505092915050565b6120f08161230b565b82525050565b6120ff8161230b565b82525050565b60006121118284611f81565b915081905092915050565b60006020820190506121316000830184611f00565b92915050565b600060208201905081810360008301526121518184611fb2565b905092915050565b600060208201905061216e60008301846120f6565b92915050565b60006101808201905061218a600083018f6120f6565b818103602083015261219c818e611f48565b905081810360408301526121b0818d611f48565b905081810360608301526121c4818c611f48565b905081810360808301526121d8818b611f48565b90506121e760a083018a6120f6565b81810360c08301526121f98189611f48565b905061220860e08301886120f6565b6122166101008301876120f6565b8181036101208301526122298186611f48565b905081810361014083015261223e8185611f48565b90508181036101608301526122538184611f48565b90509d9c50505050505050505050505050565b6000604051905081810181811067ffffffffffffffff8211171561228d5761228c612357565b5b8060405250919050565b600067ffffffffffffffff8211156122b2576122b1612357565b5b601f19601f8301169050602081019050919050565b600081519050919050565b600082825260208201905092915050565b600082825260208201905092915050565b600081905092915050565b60008115159050919050565b6000819050919050565b82818337600083830152505050565b60005b83811015612342578082015181840152602081019050612327565b83811115612351576000848401525b50505050565bfe5b6000601f19601f8301169050919050565b6123738161230b565b811461237e57600080fd5b5056fea2646970667358221220af5d631a733cc7e31b6e851e536e2847bab62c14788b91bce57f9e8a6f157de664736f6c63430007060033",
  "immutableReferences": {},
  "source": "// SPDX-License-Identifier: MIT\r\npragma solidity >=0.4.21 <0.8.0;\r\npragma abicoder v2;\r\n\r\n// NFT smart contract inherits ERC721 interface\r\ncontract Ecertify {\r\n    // total number of NFT minted\r\n    uint256 public certificateCounter;\r\n\r\n    struct Certificate {\r\n        uint256 certid;\r\n        string transactionHash;\r\n        string name;\r\n        string course;\r\n        string email;\r\n        uint256 passoutYear;\r\n        string percentage;\r\n        uint256 SAP;\r\n        uint256 contact;\r\n        string issueDate;\r\n        string gender;\r\n        string highestDegree;\r\n    }\r\n\r\n    // map Certificates's id to Certificate\r\n    mapping(uint256 => Certificate) public allCertificates;\r\n\r\n    // map Certificates's hash to Certificate\r\n    mapping(string => Certificate) public allhashedCertificates;\r\n\r\n    mapping(string => bool) public certficateHashExist;\r\n\r\n\r\n    function addCertificate(\r\n        string memory _name,\r\n        string memory _course,\r\n        string memory _email,\r\n        uint256 _passoutYear,\r\n        string memory _percentage,\r\n        uint256 _SAP,\r\n        uint256 _phone,\r\n        string memory _issueDate,\r\n        string memory _gender,\r\n        string memory _highestDegree\r\n    ) external {\r\n        certificateCounter++;\r\n        // require(!_exists(certificateCounter));\r\n\r\n        // create a new Certificate (struct) and pass in new values\r\n        Certificate memory newCert = Certificate(\r\n            certificateCounter,\r\n            \"0x0\",\r\n            _name,\r\n            _course,\r\n            _email,\r\n            _passoutYear,\r\n            _percentage,\r\n            _SAP,\r\n            _phone,\r\n            _issueDate,\r\n            _gender,\r\n            _highestDegree\r\n        );\r\n        // add the id and it's certificate to allCertificate mapping\r\n        allCertificates[certificateCounter] = newCert;\r\n    }\r\n\r\n    function updateTransaction(string memory _transactionHash) external {\r\n        Certificate memory cert = allCertificates[certificateCounter];\r\n        cert.transactionHash = _transactionHash;\r\n        allCertificates[certificateCounter] = cert;\r\n        // add the hash value and it's certificate to allCertificate mapping\r\n        allhashedCertificates[_transactionHash] = cert;\r\n        certficateHashExist[_transactionHash] = true;   \r\n    }\r\n\r\n    function getValueAtMapping(string memory userAddress)\r\n        public\r\n        view\r\n        returns (Certificate memory)\r\n    {\r\n        return allhashedCertificates[userAddress];\r\n    }\r\n}\r\n",
  "sourcePath": "C:\\Users\\Jhenil\\Development\\Blockchain Projects\\E-certo-1\\src\\contracts\\Ecertify.sol",
  "compiler": {
    "name": "solc",
    "version": "0.7.6+commit.7338295f.Emscripten.clang"
  },
  "schemaVersion": "3.4.4",
  "updatedAt": "2022-08-22T18:48:51.272Z",
  "networkType": "ethereum",
  "devdoc": {
    "kind": "dev",
    "methods": {},
    "version": 1
  },
  "userdoc": {
    "kind": "user",
    "methods": {},
    "version": 1
  }
}