{
  "contractName": "Ecertify",
  "abi": [
    {
      "inputs": [
        {
          "internalType": "uint256",
          "name": "",
          "type": "uint256"
        }
      ],
      "name": "allCertificates",
      "outputs": [
        {
          "internalType": "uint256",
          "name": "certid",
          "type": "uint256"
        },
        {
          "internalType": "string",
          "name": "transactionHash",
          "type": "string"
        },
        {
          "internalType": "string",
          "name": "name",
          "type": "string"
        },
        {
          "internalType": "string",
          "name": "course",
          "type": "string"
        },
        {
          "internalType": "string",
          "name": "email",
          "type": "string"
        },
        {
          "internalType": "uint256",
          "name": "passoutYear",
          "type": "uint256"
        },
        {
          "internalType": "string",
          "name": "percentage",
          "type": "string"
        },
        {
          "internalType": "uint256",
          "name": "SAP",
          "type": "uint256"
        },
        {
          "internalType": "uint256",
          "name": "contact",
          "type": "uint256"
        },
        {
          "internalType": "string",
          "name": "issueDate",
          "type": "string"
        }
      ],
      "stateMutability": "view",
      "type": "function",
      "constant": true
    },
    {
      "inputs": [
        {
          "internalType": "string",
          "name": "",
          "type": "string"
        }
      ],
      "name": "allhashedCertificates",
      "outputs": [
        {
          "internalType": "uint256",
          "name": "certid",
          "type": "uint256"
        },
        {
          "internalType": "string",
          "name": "transactionHash",
          "type": "string"
        },
        {
          "internalType": "string",
          "name": "name",
          "type": "string"
        },
        {
          "internalType": "string",
          "name": "course",
          "type": "string"
        },
        {
          "internalType": "string",
          "name": "email",
          "type": "string"
        },
        {
          "internalType": "uint256",
          "name": "passoutYear",
          "type": "uint256"
        },
        {
          "internalType": "string",
          "name": "percentage",
          "type": "string"
        },
        {
          "internalType": "uint256",
          "name": "SAP",
          "type": "uint256"
        },
        {
          "internalType": "uint256",
          "name": "contact",
          "type": "uint256"
        },
        {
          "internalType": "string",
          "name": "issueDate",
          "type": "string"
        }
      ],
      "stateMutability": "view",
      "type": "function",
      "constant": true
    },
    {
      "inputs": [
        {
          "internalType": "string",
          "name": "",
          "type": "string"
        }
      ],
      "name": "certficateHashExist",
      "outputs": [
        {
          "internalType": "bool",
          "name": "",
          "type": "bool"
        }
      ],
      "stateMutability": "view",
      "type": "function",
      "constant": true
    },
    {
      "inputs": [],
      "name": "certificateCounter",
      "outputs": [
        {
          "internalType": "uint256",
          "name": "",
          "type": "uint256"
        }
      ],
      "stateMutability": "view",
      "type": "function",
      "constant": true
    },
    {
      "inputs": [
        {
          "internalType": "uint256",
          "name": "",
          "type": "uint256"
        }
      ],
      "name": "sapIdExist",
      "outputs": [
        {
          "internalType": "bool",
          "name": "",
          "type": "bool"
        }
      ],
      "stateMutability": "view",
      "type": "function",
      "constant": true
    },
    {
      "inputs": [
        {
          "internalType": "string",
          "name": "_name",
          "type": "string"
        },
        {
          "internalType": "string",
          "name": "_course",
          "type": "string"
        },
        {
          "internalType": "string",
          "name": "_email",
          "type": "string"
        },
        {
          "internalType": "uint256",
          "name": "_passoutYear",
          "type": "uint256"
        },
        {
          "internalType": "string",
          "name": "_percentage",
          "type": "string"
        },
        {
          "internalType": "uint256",
          "name": "_SAP",
          "type": "uint256"
        },
        {
          "internalType": "uint256",
          "name": "_phone",
          "type": "uint256"
        },
        {
          "internalType": "string",
          "name": "_issueDate",
          "type": "string"
        }
      ],
      "name": "addCertificate",
      "outputs": [],
      "stateMutability": "nonpayable",
      "type": "function"
    },
    {
      "inputs": [
        {
          "internalType": "string",
          "name": "_transactionHash",
          "type": "string"
        }
      ],
      "name": "updateTransaction",
      "outputs": [],
      "stateMutability": "nonpayable",
      "type": "function"
    },
    {
      "inputs": [
        {
          "internalType": "string",
          "name": "userAddress",
          "type": "string"
        }
      ],
      "name": "getValueAtMapping",
      "outputs": [
        {
          "components": [
            {
              "internalType": "uint256",
              "name": "certid",
              "type": "uint256"
            },
            {
              "internalType": "string",
              "name": "transactionHash",
              "type": "string"
            },
            {
              "internalType": "string",
              "name": "name",
              "type": "string"
            },
            {
              "internalType": "string",
              "name": "course",
              "type": "string"
            },
            {
              "internalType": "string",
              "name": "email",
              "type": "string"
            },
            {
              "internalType": "uint256",
              "name": "passoutYear",
              "type": "uint256"
            },
            {
              "internalType": "string",
              "name": "percentage",
              "type": "string"
            },
            {
              "internalType": "uint256",
              "name": "SAP",
              "type": "uint256"
            },
            {
              "internalType": "uint256",
              "name": "contact",
              "type": "uint256"
            },
            {
              "internalType": "string",
              "name": "issueDate",
              "type": "string"
            }
          ],
          "internalType": "struct Ecertify.Certificate",
          "name": "",
          "type": "tuple"
        }
      ],
      "stateMutability": "view",
      "type": "function",
      "constant": true
    },
    {
      "inputs": [
        {
          "internalType": "bytes32",
          "name": "_bytes32",
          "type": "bytes32"
        }
      ],
      "name": "bytes32ToString",
      "outputs": [
        {
          "internalType": "string",
          "name": "",
          "type": "string"
        }
      ],
      "stateMutability": "pure",
      "type": "function",
      "constant": true
    },
    {
      "inputs": [
        {
          "internalType": "uint8",
          "name": "_uint8",
          "type": "uint8"
        }
      ],
      "name": "toByte",
      "outputs": [
        {
          "internalType": "bytes1",
          "name": "",
          "type": "bytes1"
        }
      ],
      "stateMutability": "pure",
      "type": "function",
      "constant": true
    },
    {
      "inputs": [
        {
          "internalType": "string",
          "name": "_string",
          "type": "string"
        },
        {
          "internalType": "uint256",
          "name": "_contact",
          "type": "uint256"
        },
        {
          "internalType": "uint256",
          "name": "_SAP",
          "type": "uint256"
        }
      ],
      "name": "hash",
      "outputs": [
        {
          "internalType": "bytes32",
          "name": "",
          "type": "bytes32"
        }
      ],
      "stateMutability": "pure",
      "type": "function",
      "constant": true
    },
    {
      "inputs": [
        {
          "components": [
            {
              "internalType": "uint256",
              "name": "certid",
              "type": "uint256"
            },
            {
              "internalType": "string",
              "name": "transactionHash",
              "type": "string"
            },
            {
              "internalType": "string",
              "name": "name",
              "type": "string"
            },
            {
              "internalType": "string",
              "name": "course",
              "type": "string"
            },
            {
              "internalType": "string",
              "name": "email",
              "type": "string"
            },
            {
              "internalType": "uint256",
              "name": "passoutYear",
              "type": "uint256"
            },
            {
              "internalType": "string",
              "name": "percentage",
              "type": "string"
            },
            {
              "internalType": "uint256",
              "name": "SAP",
              "type": "uint256"
            },
            {
              "internalType": "uint256",
              "name": "contact",
              "type": "uint256"
            },
            {
              "internalType": "string",
              "name": "issueDate",
              "type": "string"
            }
          ],
          "internalType": "struct Ecertify.Certificate[]",
          "name": "b",
          "type": "tuple[]"
        }
      ],
      "name": "addInBulk",
      "outputs": [],
      "stateMutability": "nonpayable",
      "type": "function"
    }
  ],
  "bytecode": "0x608060405234801561001057600080fd5b50612931806100206000396000f3fe608060405234801561001057600080fd5b50600436106100b45760003560e01c8063a86b73f011610071578063a86b73f0146101d9578063d3a3f08214610209578063da4039df14610239578063dbdd28cf14610255578063e9a80da714610285578063f31125cf146102a1576100b4565b8063053c8e25146100b957806312e25330146100f25780631e830c3f1461012257806367764b261461015b578063860a9ea2146101795780639201de55146101a9575b600080fd5b6100d360048036038101906100ce9190612265565b6102bd565b6040516100e99a9998979695949392919061265e565b60405180910390f35b61010c60048036038101906101079190612265565b6106a1565b60405161011991906125ae565b60405180910390f35b61013c60048036038101906101379190612093565b6106c1565b6040516101529a9998979695949392919061265e565b60405180910390f35b610163610abb565b6040516101709190612643565b60405180910390f35b610193600480360381019061018e91906121fe565b610ac1565b6040516101a091906125e4565b60405180910390f35b6101c360048036038101906101be919061206a565b610af7565b6040516101d091906125ff565b60405180910390f35b6101f360048036038101906101ee919061228e565b610c82565b60405161020091906125c9565b60405180910390f35b610223600480360381019061021e9190612093565b610cad565b60405161023091906125ae565b60405180910390f35b610253600480360381019061024e9190612029565b610ce3565b005b61026f600480360381019061026a9190612093565b61104f565b60405161027c9190612621565b60405180910390f35b61029f600480360381019061029a91906120d4565b61147c565b005b6102bb60048036038101906102b69190612093565b611635565b005b6002602052806000526040600020600091509050806000015490806001018054600181600116156101000203166002900480601f01602080910402602001604051908101604052809291908181526020018280546001816001161561010002031660029004801561036f5780601f106103445761010080835404028352916020019161036f565b820191906000526020600020905b81548152906001019060200180831161035257829003601f168201915b505050505090806002018054600181600116156101000203166002900480601f01602080910402602001604051908101604052809291908181526020018280546001816001161561010002031660029004801561040d5780601f106103e25761010080835404028352916020019161040d565b820191906000526020600020905b8154815290600101906020018083116103f057829003601f168201915b505050505090806003018054600181600116156101000203166002900480601f0160208091040260200160405190810160405280929190818152602001828054600181600116156101000203166002900480156104ab5780601f10610480576101008083540402835291602001916104ab565b820191906000526020600020905b81548152906001019060200180831161048e57829003601f168201915b505050505090806004018054600181600116156101000203166002900480601f0160208091040260200160405190810160405280929190818152602001828054600181600116156101000203166002900480156105495780601f1061051e57610100808354040283529160200191610549565b820191906000526020600020905b81548152906001019060200180831161052c57829003601f168201915b505050505090806005015490806006018054600181600116156101000203166002900480601f0160208091040260200160405190810160405280929190818152602001828054600181600116156101000203166002900480156105ed5780601f106105c2576101008083540402835291602001916105ed565b820191906000526020600020905b8154815290600101906020018083116105d057829003601f168201915b505050505090806007015490806008015490806009018054600181600116156101000203166002900480601f0160208091040260200160405190810160405280929190818152602001828054600181600116156101000203166002900480156106975780601f1061066c57610100808354040283529160200191610697565b820191906000526020600020905b81548152906001019060200180831161067a57829003601f168201915b505050505090508a565b60056020528060005260406000206000915054906101000a900460ff1681565b600381805160208101820180518482526020830160208501208183528095505050505050600091509050806000015490806001018054600181600116156101000203166002900480601f0160208091040260200160405190810160405280929190818152602001828054600181600116156101000203166002900480156107895780601f1061075e57610100808354040283529160200191610789565b820191906000526020600020905b81548152906001019060200180831161076c57829003601f168201915b505050505090806002018054600181600116156101000203166002900480601f0160208091040260200160405190810160405280929190818152602001828054600181600116156101000203166002900480156108275780601f106107fc57610100808354040283529160200191610827565b820191906000526020600020905b81548152906001019060200180831161080a57829003601f168201915b505050505090806003018054600181600116156101000203166002900480601f0160208091040260200160405190810160405280929190818152602001828054600181600116156101000203166002900480156108c55780601f1061089a576101008083540402835291602001916108c5565b820191906000526020600020905b8154815290600101906020018083116108a857829003601f168201915b505050505090806004018054600181600116156101000203166002900480601f0160208091040260200160405190810160405280929190818152602001828054600181600116156101000203166002900480156109635780601f1061093857610100808354040283529160200191610963565b820191906000526020600020905b81548152906001019060200180831161094657829003601f168201915b505050505090806005015490806006018054600181600116156101000203166002900480601f016020809104026020016040519081016040528092919081815260200182805460018160011615610100020316600290048015610a075780601f106109dc57610100808354040283529160200191610a07565b820191906000526020600020905b8154815290600101906020018083116109ea57829003601f168201915b505050505090806007015490806008015490806009018054600181600116156101000203166002900480601f016020809104026020016040519081016040528092919081815260200182805460018160011615610100020316600290048015610ab15780601f10610a8657610100808354040283529160200191610ab1565b820191906000526020600020905b815481529060010190602001808311610a9457829003601f168201915b505050505090508a565b60005481565b6000838383604051602001610ad89392919061255e565b6040516020818303038152906040528051906020012090509392505050565b6060600080604067ffffffffffffffff81118015610b1457600080fd5b506040519080825280601f01601f191660200182016040528015610b475781602001600182028036833780820191505090505b509050600091505b80518260ff161015610c78576000600f60f81b8560028560ff1681610b7057fe5b0460ff1660208110610b7e57fe5b1a60f81b1660f81c9050600060048660028660ff1681610b9a57fe5b0460ff1660208110610ba857fe5b1a60f81b7effffffffffffffffffffffffffffffffffffffffffffffffffffffffffffff1916901c60f81c9050610bde82610c82565b838560ff1681518110610bed57fe5b60200101907effffffffffffffffffffffffffffffffffffffffffffffffffffffffffffff1916908160001a905350600184019350610c2b81610c82565b838560ff1681518110610c3a57fe5b60200101907effffffffffffffffffffffffffffffffffffffffffffffffffffffffffffff1916908160001a90535050508180600101925050610b4f565b8092505050919050565b6000600a8260ff161015610c9e576030820160f81b9050610ca8565b6057820160f81b90505b919050565b6004818051602081018201805184825260208301602085012081835280955050505050506000915054906101000a900460ff1681565b60005b815181101561104b5760008081548092919060010191905055506000610d53838381518110610d1157fe5b602002602001015160400151848481518110610d2957fe5b60200260200101516101000151858581518110610d4257fe5b602002602001015160e00151610ac1565b9050610d5e81610af7565b60019080519060200190610d73929190611c7b565b506000604051806101400160405280600054815260200160018054600181600116156101000203166002900480601f016020809104026020016040519081016040528092919081815260200182805460018160011615610100020316600290048015610e205780601f10610df557610100808354040283529160200191610e20565b820191906000526020600020905b815481529060010190602001808311610e0357829003601f168201915b50505050508152602001858581518110610e3657fe5b6020026020010151604001518152602001858581518110610e5357fe5b6020026020010151606001518152602001858581518110610e7057fe5b6020026020010151608001518152602001858581518110610e8d57fe5b602002602001015160a001518152602001858581518110610eaa57fe5b602002602001015160c001518152602001858581518110610ec757fe5b602002602001015160e001518152602001858581518110610ee457fe5b602002602001015161010001518152602001858581518110610f0257fe5b602002602001015161012001518152509050806002600080548152602001908152602001600020600082015181600001556020820151816001019080519060200190610f4f929190611c7b565b506040820151816002019080519060200190610f6c929190611c7b565b506060820151816003019080519060200190610f89929190611c7b565b506080820151816004019080519060200190610fa6929190611c7b565b5060a0820151816005015560c0820151816006019080519060200190610fcd929190611c7b565b5060e082015181600701556101008201518160080155610120820151816009019080519060200190611000929190611c7b565b509050506001600460016040516110179190612597565b908152602001604051809103902060006101000a81548160ff02191690831515021790555050508080600101915050610ce6565b5050565b611057611d09565b6003826040516110679190612547565b90815260200160405180910390206040518061014001604052908160008201548152602001600182018054600181600116156101000203166002900480601f0160208091040260200160405190810160405280929190818152602001828054600181600116156101000203166002900480156111245780601f106110f957610100808354040283529160200191611124565b820191906000526020600020905b81548152906001019060200180831161110757829003601f168201915b50505050508152602001600282018054600181600116156101000203166002900480601f0160208091040260200160405190810160405280929190818152602001828054600181600116156101000203166002900480156111c65780601f1061119b576101008083540402835291602001916111c6565b820191906000526020600020905b8154815290600101906020018083116111a957829003601f168201915b50505050508152602001600382018054600181600116156101000203166002900480601f0160208091040260200160405190810160405280929190818152602001828054600181600116156101000203166002900480156112685780601f1061123d57610100808354040283529160200191611268565b820191906000526020600020905b81548152906001019060200180831161124b57829003601f168201915b50505050508152602001600482018054600181600116156101000203166002900480601f01602080910402602001604051908101604052809291908181526020018280546001816001161561010002031660029004801561130a5780601f106112df5761010080835404028352916020019161130a565b820191906000526020600020905b8154815290600101906020018083116112ed57829003601f168201915b5050505050815260200160058201548152602001600682018054600181600116156101000203166002900480601f0160208091040260200160405190810160405280929190818152602001828054600181600116156101000203166002900480156113b65780601f1061138b576101008083540402835291602001916113b6565b820191906000526020600020905b81548152906001019060200180831161139957829003601f168201915b505050505081526020016007820154815260200160088201548152602001600982018054600181600116156101000203166002900480601f01602080910402602001604051908101604052809291908181526020018280546001816001161561010002031660029004801561146c5780601f106114415761010080835404028352916020019161146c565b820191906000526020600020905b81548152906001019060200180831161144f57829003601f168201915b5050505050815250509050919050565b6000808154809291906001019190505550600060405180610140016040528060005481526020016040518060400160405280600381526020017f307830000000000000000000000000000000000000000000000000000000000081525081526020018a8152602001898152602001888152602001878152602001868152602001858152602001848152602001838152509050806002600080548152602001908152602001600020600082015181600001556020820151816001019080519060200190611549929190611c7b565b506040820151816002019080519060200190611566929190611c7b565b506060820151816003019080519060200190611583929190611c7b565b5060808201518160040190805190602001906115a0929190611c7b565b5060a0820151816005015560c08201518160060190805190602001906115c7929190611c7b565b5060e0820151816007015561010082015181600801556101208201518160090190805190602001906115fa929190611c7b565b5090505060016005600086815260200190815260200160002060006101000a81548160ff021916908315150217905550505050505050505050565b600060026000805481526020019081526020016000206040518061014001604052908160008201548152602001600182018054600181600116156101000203166002900480601f0160208091040260200160405190810160405280929190818152602001828054600181600116156101000203166002900480156116fa5780601f106116cf576101008083540402835291602001916116fa565b820191906000526020600020905b8154815290600101906020018083116116dd57829003601f168201915b50505050508152602001600282018054600181600116156101000203166002900480601f01602080910402602001604051908101604052809291908181526020018280546001816001161561010002031660029004801561179c5780601f106117715761010080835404028352916020019161179c565b820191906000526020600020905b81548152906001019060200180831161177f57829003601f168201915b50505050508152602001600382018054600181600116156101000203166002900480601f01602080910402602001604051908101604052809291908181526020018280546001816001161561010002031660029004801561183e5780601f106118135761010080835404028352916020019161183e565b820191906000526020600020905b81548152906001019060200180831161182157829003601f168201915b50505050508152602001600482018054600181600116156101000203166002900480601f0160208091040260200160405190810160405280929190818152602001828054600181600116156101000203166002900480156118e05780601f106118b5576101008083540402835291602001916118e0565b820191906000526020600020905b8154815290600101906020018083116118c357829003601f168201915b5050505050815260200160058201548152602001600682018054600181600116156101000203166002900480601f01602080910402602001604051908101604052809291908181526020018280546001816001161561010002031660029004801561198c5780601f106119615761010080835404028352916020019161198c565b820191906000526020600020905b81548152906001019060200180831161196f57829003601f168201915b505050505081526020016007820154815260200160088201548152602001600982018054600181600116156101000203166002900480601f016020809104026020016040519081016040528092919081815260200182805460018160011615610100020316600290048015611a425780601f10611a1757610100808354040283529160200191611a42565b820191906000526020600020905b815481529060010190602001808311611a2557829003601f168201915b5050505050815250509050818160200181905250806002600080548152602001908152602001600020600082015181600001556020820151816001019080519060200190611a91929190611c7b565b506040820151816002019080519060200190611aae929190611c7b565b506060820151816003019080519060200190611acb929190611c7b565b506080820151816004019080519060200190611ae8929190611c7b565b5060a0820151816005015560c0820151816006019080519060200190611b0f929190611c7b565b5060e082015181600701556101008201518160080155610120820151816009019080519060200190611b42929190611c7b565b5090505080600383604051611b579190612547565b9081526020016040518091039020600082015181600001556020820151816001019080519060200190611b8b929190611c7b565b506040820151816002019080519060200190611ba8929190611c7b565b506060820151816003019080519060200190611bc5929190611c7b565b506080820151816004019080519060200190611be2929190611c7b565b5060a0820151816005015560c0820151816006019080519060200190611c09929190611c7b565b5060e082015181600701556101008201518160080155610120820151816009019080519060200190611c3c929190611c7b565b509050506001600483604051611c529190612547565b908152602001604051809103902060006101000a81548160ff0219169083151502179055505050565b828054600181600116156101000203166002900490600052602060002090601f016020900481019282611cb15760008555611cf8565b82601f10611cca57805160ff1916838001178555611cf8565b82800160010185558215611cf8579182015b82811115611cf7578251825591602001919060010190611cdc565b5b509050611d059190611d5c565b5090565b604051806101400160405280600081526020016060815260200160608152602001606081526020016060815260200160008152602001606081526020016000815260200160008152602001606081525090565b5b80821115611d75576000816000905550600101611d5d565b5090565b6000611d8c611d8784612755565b612724565b9050808382526020820190508260005b85811015611dcc5781358501611db28882611e7d565b845260208401935060208301925050600181019050611d9c565b5050509392505050565b6000611de9611de484612781565b612724565b905082815260208101848484011115611e0157600080fd5b611e0c848285612857565b509392505050565b600082601f830112611e2557600080fd5b8135611e35848260208601611d79565b91505092915050565b600081359050611e4d816128b6565b92915050565b600082601f830112611e6457600080fd5b8135611e74848260208601611dd6565b91505092915050565b60006101408284031215611e9057600080fd5b611e9b610140612724565b90506000611eab84828501611fff565b600083015250602082013567ffffffffffffffff811115611ecb57600080fd5b611ed784828501611e53565b602083015250604082013567ffffffffffffffff811115611ef757600080fd5b611f0384828501611e53565b604083015250606082013567ffffffffffffffff811115611f2357600080fd5b611f2f84828501611e53565b606083015250608082013567ffffffffffffffff811115611f4f57600080fd5b611f5b84828501611e53565b60808301525060a0611f6f84828501611fff565b60a08301525060c082013567ffffffffffffffff811115611f8f57600080fd5b611f9b84828501611e53565b60c08301525060e0611faf84828501611fff565b60e083015250610100611fc484828501611fff565b6101008301525061012082013567ffffffffffffffff811115611fe657600080fd5b611ff284828501611e53565b6101208301525092915050565b60008135905061200e816128cd565b92915050565b600081359050612023816128e4565b92915050565b60006020828403121561203b57600080fd5b600082013567ffffffffffffffff81111561205557600080fd5b61206184828501611e14565b91505092915050565b60006020828403121561207c57600080fd5b600061208a84828501611e3e565b91505092915050565b6000602082840312156120a557600080fd5b600082013567ffffffffffffffff8111156120bf57600080fd5b6120cb84828501611e53565b91505092915050565b600080600080600080600080610100898b0312156120f157600080fd5b600089013567ffffffffffffffff81111561210b57600080fd5b6121178b828c01611e53565b985050602089013567ffffffffffffffff81111561213457600080fd5b6121408b828c01611e53565b975050604089013567ffffffffffffffff81111561215d57600080fd5b6121698b828c01611e53565b965050606061217a8b828c01611fff565b955050608089013567ffffffffffffffff81111561219757600080fd5b6121a38b828c01611e53565b94505060a06121b48b828c01611fff565b93505060c06121c58b828c01611fff565b92505060e089013567ffffffffffffffff8111156121e257600080fd5b6121ee8b828c01611e53565b9150509295985092959890939650565b60008060006060848603121561221357600080fd5b600084013567ffffffffffffffff81111561222d57600080fd5b61223986828701611e53565b935050602061224a86828701611fff565b925050604061225b86828701611fff565b9150509250925092565b60006020828403121561227757600080fd5b600061228584828501611fff565b91505092915050565b6000602082840312156122a057600080fd5b60006122ae84828501612014565b91505092915050565b6122c0816127fe565b82525050565b6122cf8161280a565b82525050565b6122de81612836565b82525050565b60006122ef826127c6565b6122f981856127d1565b9350612309818560208601612866565b612312816128a5565b840191505092915050565b6000612328826127c6565b61233281856127e2565b9350612342818560208601612866565b61234b816128a5565b840191505092915050565b6000612361826127c6565b61236b81856127f3565b935061237b818560208601612866565b80840191505092915050565b6000815460018116600081146123a457600181146123c95761240d565b607f60028304166123b581876127f3565b955060ff198316865280860193505061240d565b600282046123d781876127f3565b95506123e2856127b1565b60005b82811015612404578154818901526001820191506020810190506123e5565b82880195505050505b505092915050565b60006101408301600083015161242e6000860182612512565b506020830151848203602086015261244682826122e4565b9150506040830151848203604086015261246082826122e4565b9150506060830151848203606086015261247a82826122e4565b9150506080830151848203608086015261249482826122e4565b91505060a08301516124a960a0860182612512565b5060c083015184820360c08601526124c182826122e4565b91505060e08301516124d660e0860182612512565b506101008301516124eb610100860182612512565b5061012083015184820361012086015261250582826122e4565b9150508091505092915050565b61251b81612840565b82525050565b61252a81612840565b82525050565b61254161253c82612840565b612899565b82525050565b60006125538284612356565b915081905092915050565b600061256a8286612356565b91506125768285612530565b6020820191506125868284612530565b602082019150819050949350505050565b60006125a38284612387565b915081905092915050565b60006020820190506125c360008301846122b7565b92915050565b60006020820190506125de60008301846122c6565b92915050565b60006020820190506125f960008301846122d5565b92915050565b60006020820190508181036000830152612619818461231d565b905092915050565b6000602082019050818103600083015261263b8184612415565b905092915050565b60006020820190506126586000830184612521565b92915050565b600061014082019050612674600083018d612521565b8181036020830152612686818c61231d565b9050818103604083015261269a818b61231d565b905081810360608301526126ae818a61231d565b905081810360808301526126c2818961231d565b90506126d160a0830188612521565b81810360c08301526126e3818761231d565b90506126f260e0830186612521565b612700610100830185612521565b818103610120830152612713818461231d565b90509b9a5050505050505050505050565b6000604051905081810181811067ffffffffffffffff8211171561274b5761274a6128a3565b5b8060405250919050565b600067ffffffffffffffff8211156127705761276f6128a3565b5b602082029050602081019050919050565b600067ffffffffffffffff82111561279c5761279b6128a3565b5b601f19601f8301169050602081019050919050565b60008190508160005260206000209050919050565b600081519050919050565b600082825260208201905092915050565b600082825260208201905092915050565b600081905092915050565b60008115159050919050565b60007fff0000000000000000000000000000000000000000000000000000000000000082169050919050565b6000819050919050565b6000819050919050565b600060ff82169050919050565b82818337600083830152505050565b60005b83811015612884578082015181840152602081019050612869565b83811115612893576000848401525b50505050565b6000819050919050565bfe5b6000601f19601f8301169050919050565b6128bf81612836565b81146128ca57600080fd5b50565b6128d681612840565b81146128e157600080fd5b50565b6128ed8161284a565b81146128f857600080fd5b5056fea26469706673582212205333f5eb7f6661f4205eba39cfdd149d754dda74ba7e5dd99ce3c8d2d013eb7c64736f6c63430007060033",
  "immutableReferences": {},
  "source": "// SPDX-License-Identifier: MIT\r\npragma solidity >=0.4.21 <0.8.0;\r\npragma abicoder v2;\r\n\r\n// NFT smart contract inherits ERC721 interface\r\ncontract Ecertify {\r\n    // total number of NFT minted\r\n    uint256 public certificateCounter;\r\n    string convertedHash;\r\n\r\n    struct Certificate {\r\n        uint256 certid;\r\n        string transactionHash;\r\n        string name;\r\n        string course;\r\n        string email;\r\n        uint256 passoutYear;\r\n        string percentage;\r\n        uint256 SAP;\r\n        uint256 contact;\r\n        string issueDate;\r\n    }\r\n\r\n    // map Certificates's id to Certificate\r\n    mapping(uint256 => Certificate) public allCertificates;\r\n\r\n    // map Certificates's hash to Certificate\r\n    mapping(string => Certificate) public allhashedCertificates;\r\n\r\n    mapping(string => bool) public certficateHashExist;\r\n\r\n    mapping(uint256 => bool) public sapIdExist;\r\n\r\n    function addCertificate(\r\n        string memory _name,\r\n        string memory _course,\r\n        string memory _email,\r\n        uint256 _passoutYear,\r\n        string memory _percentage,\r\n        uint256 _SAP,\r\n        uint256 _phone,\r\n        string memory _issueDate\r\n    ) external {\r\n        certificateCounter++;\r\n        // require(!_exists(certificateCounter));\r\n\r\n        // create a new Certificate (struct) and pass in new values\r\n        Certificate memory newCert = Certificate(\r\n            certificateCounter,\r\n            \"0x0\",\r\n            _name,\r\n            _course,\r\n            _email,\r\n            _passoutYear,\r\n            _percentage,\r\n            _SAP,\r\n            _phone,\r\n            _issueDate\r\n        );\r\n        // add the id and it's certificate to allCertificate mapping\r\n        allCertificates[certificateCounter] = newCert;\r\n\r\n        sapIdExist[_SAP] = true;\r\n    }\r\n\r\n    function updateTransaction(string memory _transactionHash) external {\r\n        Certificate memory cert = allCertificates[certificateCounter];\r\n        cert.transactionHash = _transactionHash;\r\n        allCertificates[certificateCounter] = cert;\r\n        // add the hash value and it's certificate to allCertificate mapping\r\n        allhashedCertificates[_transactionHash] = cert;\r\n        certficateHashExist[_transactionHash] = true;\r\n    }\r\n\r\n    function getValueAtMapping(string memory userAddress)\r\n        public\r\n        view\r\n        returns (Certificate memory)\r\n    {\r\n        return allhashedCertificates[userAddress];\r\n    }\r\n\r\n    function bytes32ToString(bytes32 _bytes32)\r\n        public\r\n        pure\r\n        returns (string memory)\r\n    {\r\n        uint8 i = 0;\r\n        bytes memory bytesArray = new bytes(64);\r\n        for (i = 0; i < bytesArray.length; i++) {\r\n            uint8 _f = uint8(_bytes32[i / 2] & 0x0f);\r\n            uint8 _l = uint8(_bytes32[i / 2] >> 4);\r\n\r\n            bytesArray[i] = toByte(_f);\r\n            i = i + 1;\r\n            bytesArray[i] = toByte(_l);\r\n        }\r\n        return string(bytesArray);\r\n    }\r\n\r\n    function toByte(uint8 _uint8) public pure returns (bytes1) {\r\n        if (_uint8 < 10) {\r\n            return bytes1(_uint8 + 48);\r\n        } else {\r\n            return bytes1(_uint8 + 87);\r\n        }\r\n    }\r\n\r\n    function hash(string memory _string,uint256 _contact,uint256 _SAP) public pure returns (bytes32) {\r\n        return keccak256(abi.encodePacked(_string,_contact,_SAP));\r\n    }\r\n\r\n    function addInBulk(Certificate[] memory b) external {\r\n        for (uint256 index = 0; index < b.length; index++) {\r\n            certificateCounter++;\r\n            // require(!_exists(certificateCounter));\r\n            bytes32 unique = hash(b[index].name,b[index].contact,b[index].SAP);\r\n            convertedHash = bytes32ToString(unique);\r\n            // create a new Certificate (struct) and pass in new values\r\n            Certificate memory newCert = Certificate(\r\n                certificateCounter,\r\n                convertedHash,\r\n                b[index].name,\r\n                b[index].course,\r\n                b[index].email,\r\n                b[index].passoutYear,\r\n                b[index].percentage,\r\n                b[index].SAP,\r\n                b[index].contact,\r\n                b[index].issueDate\r\n            );\r\n            // add the id and it's certificate to allCertificate mapping\r\n            allCertificates[certificateCounter] = newCert;\r\n            certficateHashExist[convertedHash] = true;\r\n        }\r\n        //  allCertificatesInBulk[certificateCounter2] = b;\r\n    }\r\n}\r\n",
  "sourcePath": "C:\\Users\\Jhenil\\Development\\Blockchain Projects\\E-certo\\src\\contracts\\Ecertify.sol",
  "compiler": {
    "name": "solc",
    "version": "0.7.6+commit.7338295f.Emscripten.clang"
  },
  "schemaVersion": "3.4.4",
  "updatedAt": "2022-09-13T10:43:49.221Z",
  "networkType": "ethereum",
  "devdoc": {
    "kind": "dev",
    "methods": {},
    "version": 1
  },
  "userdoc": {
    "kind": "user",
    "methods": {},
    "version": 1
  }
}