{
  "contractName": "Ecertify",
  "abi": [
    {
      "inputs": [
        {
          "internalType": "uint256",
          "name": "",
          "type": "uint256"
        }
      ],
      "name": "allCertificates",
      "outputs": [
        {
          "internalType": "uint256",
          "name": "id",
          "type": "uint256"
        },
        {
          "internalType": "string",
          "name": "name",
          "type": "string"
        },
        {
          "internalType": "string",
          "name": "course",
          "type": "string"
        }
      ],
      "stateMutability": "view",
      "type": "function",
      "constant": true
    },
    {
      "inputs": [],
      "name": "certificateCounter",
      "outputs": [
        {
          "internalType": "uint256",
          "name": "",
          "type": "uint256"
        }
      ],
      "stateMutability": "view",
      "type": "function",
      "constant": true
    },
    {
      "inputs": [
        {
          "internalType": "string",
          "name": "_name",
          "type": "string"
        },
        {
          "internalType": "string",
          "name": "_course",
          "type": "string"
        }
      ],
      "name": "addCertificate",
      "outputs": [],
      "stateMutability": "nonpayable",
      "type": "function"
    }
  ],
  "bytecode": "0x608060405234801561001057600080fd5b50610633806100206000396000f3fe608060405234801561001057600080fd5b50600436106100415760003560e01c8063053c8e251461004657806367764b2614610078578063e24f2ce714610096575b600080fd5b610060600480360381019061005b9190610439565b6100b2565b60405161006f939291906104c5565b60405180910390f35b61008061020c565b60405161008d91906104aa565b60405180910390f35b6100b060048036038101906100ab91906103cd565b610212565b005b6001602052806000526040600020600091509050806000015490806001018054600181600116156101000203166002900480601f0160208091040260200160405190810160405280929190818152602001828054600181600116156101000203166002900480156101645780601f1061013957610100808354040283529160200191610164565b820191906000526020600020905b81548152906001019060200180831161014757829003601f168201915b505050505090806002018054600181600116156101000203166002900480601f0160208091040260200160405190810160405280929190818152602001828054600181600116156101000203166002900480156102025780601f106101d757610100808354040283529160200191610202565b820191906000526020600020905b8154815290600101906020018083116101e557829003601f168201915b5050505050905083565b60005481565b600080815480929190600101919050555060006040518060600160405280600054815260200184815260200183815250905080600160008054815260200190815260200160002060008201518160000155602082015181600101908051906020019061027f9291906102a5565b50604082015181600201908051906020019061029c9291906102a5565b50905050505050565b828054600181600116156101000203166002900490600052602060002090601f0160209004810192826102db5760008555610322565b82601f106102f457805160ff1916838001178555610322565b82800160010185558215610322579182015b82811115610321578251825591602001919060010190610306565b5b50905061032f9190610333565b5090565b5b8082111561034c576000816000905550600101610334565b5090565b600061036361035e8461053b565b61050a565b90508281526020810184848401111561037b57600080fd5b610386848285610591565b509392505050565b600082601f83011261039f57600080fd5b81356103af848260208601610350565b91505092915050565b6000813590506103c7816105e6565b92915050565b600080604083850312156103e057600080fd5b600083013567ffffffffffffffff8111156103fa57600080fd5b6104068582860161038e565b925050602083013567ffffffffffffffff81111561042357600080fd5b61042f8582860161038e565b9150509250929050565b60006020828403121561044b57600080fd5b6000610459848285016103b8565b91505092915050565b600061046d8261056b565b6104778185610576565b93506104878185602086016105a0565b610490816105d5565b840191505092915050565b6104a481610587565b82525050565b60006020820190506104bf600083018461049b565b92915050565b60006060820190506104da600083018661049b565b81810360208301526104ec8185610462565b905081810360408301526105008184610462565b9050949350505050565b6000604051905081810181811067ffffffffffffffff82111715610531576105306105d3565b5b8060405250919050565b600067ffffffffffffffff821115610556576105556105d3565b5b601f19601f8301169050602081019050919050565b600081519050919050565b600082825260208201905092915050565b6000819050919050565b82818337600083830152505050565b60005b838110156105be5780820151818401526020810190506105a3565b838111156105cd576000848401525b50505050565bfe5b6000601f19601f8301169050919050565b6105ef81610587565b81146105fa57600080fd5b5056fea26469706673582212202d50a2046d86dbec799be8dc7ba18777765ef080bbed3f848f51a037c753ae7b64736f6c63430007060033",
  "immutableReferences": {},
  "source": "// SPDX-License-Identifier: MIT\npragma solidity >=0.4.21 <0.8.0;\npragma abicoder v2;\n\n\n// NFT smart contract inherits ERC721 interface\ncontract Ecertify{\n\n // total number of NFT minted\n  uint256 public certificateCounter;\n\nstruct Certificate {\n    uint256 id;\n    string name;\n    string course;\n  }\n  \n// map Certificates's id to Certificate\nmapping(uint256 => Certificate) public allCertificates;  \n\nfunction addCertificate(string memory _name,string memory _course)external {\n  certificateCounter ++;\n  // require(!_exists(certificateCounter));\n\n  // create a new Certificate (struct) and pass in new values\n    Certificate memory newCert = Certificate(\n      certificateCounter,\n      _name,\n      _course\n    );\n   // add the id and it's certificate to allCertificate mapping\n    allCertificates[certificateCounter] = newCert;\n}\n}\n",
  "sourcePath": "C:\\Users\\Harsh\\Blockchain\\E-Certo\\src\\contracts\\Ecertify.sol",
  "compiler": {
    "name": "solc",
    "version": "0.7.6+commit.7338295f.Emscripten.clang"
  },
  "schemaVersion": "3.4.8",
  "updatedAt": "2022-07-24T14:24:56.983Z",
  "networkType": "ethereum",
  "devdoc": {
    "kind": "dev",
    "methods": {},
    "version": 1
  },
  "userdoc": {
    "kind": "user",
    "methods": {},
    "version": 1
  }
}