{
  "address": "0x983ea0449E51E8e3B79a4BC1bDA5dB2E7D9d4ecE",
  "abi": [
    {
      "inputs": [
        {
          "internalType": "string",
          "name": "_name",
          "type": "string"
        },
        {
          "internalType": "string",
          "name": "_course",
          "type": "string"
        },
        {
          "internalType": "string",
          "name": "_email",
          "type": "string"
        },
        {
          "internalType": "uint256",
          "name": "_passoutYear",
          "type": "uint256"
        },
        {
          "internalType": "string",
          "name": "_percentage",
          "type": "string"
        },
        {
          "internalType": "uint256",
          "name": "_SAP",
          "type": "uint256"
        },
        {
          "internalType": "uint256",
          "name": "_phone",
          "type": "uint256"
        },
        {
          "internalType": "string",
          "name": "_issueDate",
          "type": "string"
        }
      ],
      "name": "addCertificate",
      "outputs": [],
      "stateMutability": "nonpayable",
      "type": "function"
    },
    {
      "inputs": [
        {
          "components": [
            {
              "internalType": "uint256",
              "name": "certid",
              "type": "uint256"
            },
            {
              "internalType": "string",
              "name": "transactionHash",
              "type": "string"
            },
            {
              "internalType": "string",
              "name": "name",
              "type": "string"
            },
            {
              "internalType": "string",
              "name": "email",
              "type": "string"
            },
            {
              "internalType": "string",
              "name": "domain",
              "type": "string"
            },
            {
              "internalType": "uint256",
              "name": "contact",
              "type": "uint256"
            },
            {
              "internalType": "string",
              "name": "eventName",
              "type": "string"
            },
            {
              "internalType": "string",
              "name": "eventType",
              "type": "string"
            },
            {
              "internalType": "string",
              "name": "eventDate",
              "type": "string"
            },
            {
              "internalType": "string",
              "name": "issueDate",
              "type": "string"
            }
          ],
          "internalType": "struct Ecertify.EventCertificate[]",
          "name": "b",
          "type": "tuple[]"
        }
      ],
      "name": "addEventInBulk",
      "outputs": [],
      "stateMutability": "nonpayable",
      "type": "function"
    },
    {
      "inputs": [
        {
          "components": [
            {
              "internalType": "uint256",
              "name": "certid",
              "type": "uint256"
            },
            {
              "internalType": "string",
              "name": "transactionHash",
              "type": "string"
            },
            {
              "internalType": "string",
              "name": "name",
              "type": "string"
            },
            {
              "internalType": "string",
              "name": "course",
              "type": "string"
            },
            {
              "internalType": "string",
              "name": "email",
              "type": "string"
            },
            {
              "internalType": "uint256",
              "name": "passoutYear",
              "type": "uint256"
            },
            {
              "internalType": "string",
              "name": "percentage",
              "type": "string"
            },
            {
              "internalType": "uint256",
              "name": "SAP",
              "type": "uint256"
            },
            {
              "internalType": "uint256",
              "name": "contact",
              "type": "uint256"
            },
            {
              "internalType": "string",
              "name": "issueDate",
              "type": "string"
            }
          ],
          "internalType": "struct Ecertify.Certificate[]",
          "name": "b",
          "type": "tuple[]"
        }
      ],
      "name": "addInBulk",
      "outputs": [],
      "stateMutability": "nonpayable",
      "type": "function"
    },
    {
      "inputs": [
        {
          "internalType": "uint256",
          "name": "",
          "type": "uint256"
        }
      ],
      "name": "allCertificates",
      "outputs": [
        {
          "internalType": "uint256",
          "name": "certid",
          "type": "uint256"
        },
        {
          "internalType": "string",
          "name": "transactionHash",
          "type": "string"
        },
        {
          "internalType": "string",
          "name": "name",
          "type": "string"
        },
        {
          "internalType": "string",
          "name": "course",
          "type": "string"
        },
        {
          "internalType": "string",
          "name": "email",
          "type": "string"
        },
        {
          "internalType": "uint256",
          "name": "passoutYear",
          "type": "uint256"
        },
        {
          "internalType": "string",
          "name": "percentage",
          "type": "string"
        },
        {
          "internalType": "uint256",
          "name": "SAP",
          "type": "uint256"
        },
        {
          "internalType": "uint256",
          "name": "contact",
          "type": "uint256"
        },
        {
          "internalType": "string",
          "name": "issueDate",
          "type": "string"
        }
      ],
      "stateMutability": "view",
      "type": "function"
    },
    {
      "inputs": [
        {
          "internalType": "uint256",
          "name": "",
          "type": "uint256"
        }
      ],
      "name": "allEventCertificates",
      "outputs": [
        {
          "internalType": "uint256",
          "name": "certid",
          "type": "uint256"
        },
        {
          "internalType": "string",
          "name": "transactionHash",
          "type": "string"
        },
        {
          "internalType": "string",
          "name": "name",
          "type": "string"
        },
        {
          "internalType": "string",
          "name": "email",
          "type": "string"
        },
        {
          "internalType": "string",
          "name": "domain",
          "type": "string"
        },
        {
          "internalType": "uint256",
          "name": "contact",
          "type": "uint256"
        },
        {
          "internalType": "string",
          "name": "eventName",
          "type": "string"
        },
        {
          "internalType": "string",
          "name": "eventType",
          "type": "string"
        },
        {
          "internalType": "string",
          "name": "eventDate",
          "type": "string"
        },
        {
          "internalType": "string",
          "name": "issueDate",
          "type": "string"
        }
      ],
      "stateMutability": "view",
      "type": "function"
    },
    {
      "inputs": [
        {
          "internalType": "string",
          "name": "",
          "type": "string"
        }
      ],
      "name": "allhashedCertificates",
      "outputs": [
        {
          "internalType": "uint256",
          "name": "certid",
          "type": "uint256"
        },
        {
          "internalType": "string",
          "name": "transactionHash",
          "type": "string"
        },
        {
          "internalType": "string",
          "name": "name",
          "type": "string"
        },
        {
          "internalType": "string",
          "name": "course",
          "type": "string"
        },
        {
          "internalType": "string",
          "name": "email",
          "type": "string"
        },
        {
          "internalType": "uint256",
          "name": "passoutYear",
          "type": "uint256"
        },
        {
          "internalType": "string",
          "name": "percentage",
          "type": "string"
        },
        {
          "internalType": "uint256",
          "name": "SAP",
          "type": "uint256"
        },
        {
          "internalType": "uint256",
          "name": "contact",
          "type": "uint256"
        },
        {
          "internalType": "string",
          "name": "issueDate",
          "type": "string"
        }
      ],
      "stateMutability": "view",
      "type": "function"
    },
    {
      "inputs": [
        {
          "internalType": "string",
          "name": "",
          "type": "string"
        }
      ],
      "name": "allhashedEventCertificates",
      "outputs": [
        {
          "internalType": "uint256",
          "name": "certid",
          "type": "uint256"
        },
        {
          "internalType": "string",
          "name": "transactionHash",
          "type": "string"
        },
        {
          "internalType": "string",
          "name": "name",
          "type": "string"
        },
        {
          "internalType": "string",
          "name": "email",
          "type": "string"
        },
        {
          "internalType": "string",
          "name": "domain",
          "type": "string"
        },
        {
          "internalType": "uint256",
          "name": "contact",
          "type": "uint256"
        },
        {
          "internalType": "string",
          "name": "eventName",
          "type": "string"
        },
        {
          "internalType": "string",
          "name": "eventType",
          "type": "string"
        },
        {
          "internalType": "string",
          "name": "eventDate",
          "type": "string"
        },
        {
          "internalType": "string",
          "name": "issueDate",
          "type": "string"
        }
      ],
      "stateMutability": "view",
      "type": "function"
    },
    {
      "inputs": [
        {
          "internalType": "bytes32",
          "name": "_bytes32",
          "type": "bytes32"
        }
      ],
      "name": "bytes32ToString",
      "outputs": [
        {
          "internalType": "string",
          "name": "",
          "type": "string"
        }
      ],
      "stateMutability": "pure",
      "type": "function"
    },
    {
      "inputs": [
        {
          "internalType": "string",
          "name": "",
          "type": "string"
        }
      ],
      "name": "certficateHashExist",
      "outputs": [
        {
          "internalType": "bool",
          "name": "",
          "type": "bool"
        }
      ],
      "stateMutability": "view",
      "type": "function"
    },
    {
      "inputs": [],
      "name": "certificateCounter",
      "outputs": [
        {
          "internalType": "uint256",
          "name": "",
          "type": "uint256"
        }
      ],
      "stateMutability": "view",
      "type": "function"
    },
    {
      "inputs": [],
      "name": "eventCertificateCounter",
      "outputs": [
        {
          "internalType": "uint256",
          "name": "",
          "type": "uint256"
        }
      ],
      "stateMutability": "view",
      "type": "function"
    },
    {
      "inputs": [
        {
          "internalType": "string",
          "name": "userAddress",
          "type": "string"
        }
      ],
      "name": "getValueAtMapping",
      "outputs": [
        {
          "components": [
            {
              "internalType": "uint256",
              "name": "certid",
              "type": "uint256"
            },
            {
              "internalType": "string",
              "name": "transactionHash",
              "type": "string"
            },
            {
              "internalType": "string",
              "name": "name",
              "type": "string"
            },
            {
              "internalType": "string",
              "name": "course",
              "type": "string"
            },
            {
              "internalType": "string",
              "name": "email",
              "type": "string"
            },
            {
              "internalType": "uint256",
              "name": "passoutYear",
              "type": "uint256"
            },
            {
              "internalType": "string",
              "name": "percentage",
              "type": "string"
            },
            {
              "internalType": "uint256",
              "name": "SAP",
              "type": "uint256"
            },
            {
              "internalType": "uint256",
              "name": "contact",
              "type": "uint256"
            },
            {
              "internalType": "string",
              "name": "issueDate",
              "type": "string"
            }
          ],
          "internalType": "struct Ecertify.Certificate",
          "name": "",
          "type": "tuple"
        }
      ],
      "stateMutability": "view",
      "type": "function"
    },
    {
      "inputs": [
        {
          "internalType": "string",
          "name": "_string",
          "type": "string"
        },
        {
          "internalType": "uint256",
          "name": "_contact",
          "type": "uint256"
        }
      ],
      "name": "hash",
      "outputs": [
        {
          "internalType": "bytes32",
          "name": "",
          "type": "bytes32"
        }
      ],
      "stateMutability": "pure",
      "type": "function"
    },
    {
      "inputs": [
        {
          "internalType": "uint256",
          "name": "",
          "type": "uint256"
        }
      ],
      "name": "sapIdExist",
      "outputs": [
        {
          "internalType": "bool",
          "name": "",
          "type": "bool"
        }
      ],
      "stateMutability": "view",
      "type": "function"
    },
    {
      "inputs": [
        {
          "internalType": "uint8",
          "name": "_uint8",
          "type": "uint8"
        }
      ],
      "name": "toByte",
      "outputs": [
        {
          "internalType": "bytes1",
          "name": "",
          "type": "bytes1"
        }
      ],
      "stateMutability": "pure",
      "type": "function"
    },
    {
      "inputs": [
        {
          "internalType": "string",
          "name": "_transactionHash",
          "type": "string"
        }
      ],
      "name": "updateTransaction",
      "outputs": [],
      "stateMutability": "nonpayable",
      "type": "function"
    }
  ],
  "transactionHash": "0x485d965e8c1c8debf247d3fed83a390ba0f5a9bef92ae6482aa41f458673b2d1",
  "args": [],
  "numDeployments": 1,
  "solcInputHash": "2f6db59e007de6af51d306ca125a435e",
  "bytecode": "0x608060405234801561001057600080fd5b50613d48806100206000396000f3fe608060405234801561001057600080fd5b50600436106101005760003560e01c8063c65c94c711610097578063dfcaf60d11610066578063dfcaf60d14610326578063e9a80da71461035f578063f31125cf1461037b578063fbfb8ce21461039757610100565b8063c65c94c71461028e578063d3a3f082146102aa578063da4039df146102da578063dbdd28cf146102f657610100565b806367764b26116100d357806367764b26146101e05780639201de55146101fe578063a86b73f01461022e578063be25270f1461025e57610100565b8063053c8e251461010557806312e253301461013e5780631e830c3f1461016e57806329ee2559146101a7575b600080fd5b61011f600480360381019061011a919061290d565b6103b5565b6040516101359a999897969594939291906129d9565b60405180910390f35b6101586004803603810190610153919061290d565b610739565b6040516101659190612aba565b60405180910390f35b61018860048036038101906101839190612c0a565b610759565b60405161019e9a999897969594939291906129d9565b60405180910390f35b6101c160048036038101906101bc919061290d565b610af3565b6040516101d79a99989796959493929190612c53565b60405180910390f35b6101e8610f87565b6040516101f59190612d27565b60405180910390f35b61021860048036038101906102139190612d78565b610f8d565b6040516102259190612da5565b60405180910390f35b61024860048036038101906102439190612e00565b611143565b6040516102559190612e68565b60405180910390f35b61027860048036038101906102739190612e83565b611180565b6040516102859190612eee565b60405180910390f35b6102a860048036038101906102a391906131cf565b6111b3565b005b6102c460048036038101906102bf9190612c0a565b611531565b6040516102d19190612aba565b60405180910390f35b6102f460048036038101906102ef9190613497565b611567565b005b610310600480360381019061030b9190612c0a565b6118cc565b60405161031d9190613636565b60405180910390f35b610340600480360381019061033b9190612c0a565b611c99565b6040516103569a99989796959493929190612c53565b60405180910390f35b61037960048036038101906103749190613658565b612143565b005b61039560048036038101906103909190612c0a565b6122d8565b005b61039f61286a565b6040516103ac9190612d27565b60405180910390f35b60036020528060005260406000206000915090508060000154908060010180546103de906137c9565b80601f016020809104026020016040519081016040528092919081815260200182805461040a906137c9565b80156104575780601f1061042c57610100808354040283529160200191610457565b820191906000526020600020905b81548152906001019060200180831161043a57829003601f168201915b50505050509080600201805461046c906137c9565b80601f0160208091040260200160405190810160405280929190818152602001828054610498906137c9565b80156104e55780601f106104ba576101008083540402835291602001916104e5565b820191906000526020600020905b8154815290600101906020018083116104c857829003601f168201915b5050505050908060030180546104fa906137c9565b80601f0160208091040260200160405190810160405280929190818152602001828054610526906137c9565b80156105735780601f1061054857610100808354040283529160200191610573565b820191906000526020600020905b81548152906001019060200180831161055657829003601f168201915b505050505090806004018054610588906137c9565b80601f01602080910402602001604051908101604052809291908181526020018280546105b4906137c9565b80156106015780601f106105d657610100808354040283529160200191610601565b820191906000526020600020905b8154815290600101906020018083116105e457829003601f168201915b50505050509080600501549080600601805461061c906137c9565b80601f0160208091040260200160405190810160405280929190818152602001828054610648906137c9565b80156106955780601f1061066a57610100808354040283529160200191610695565b820191906000526020600020905b81548152906001019060200180831161067857829003601f168201915b5050505050908060070154908060080154908060090180546106b6906137c9565b80601f01602080910402602001604051908101604052809291908181526020018280546106e2906137c9565b801561072f5780601f106107045761010080835404028352916020019161072f565b820191906000526020600020905b81548152906001019060200180831161071257829003601f168201915b505050505090508a565b60086020528060005260406000206000915054906101000a900460ff1681565b600581805160208101820180518482526020830160208501208183528095505050505050600091509050806000015490806001018054610798906137c9565b80601f01602080910402602001604051908101604052809291908181526020018280546107c4906137c9565b80156108115780601f106107e657610100808354040283529160200191610811565b820191906000526020600020905b8154815290600101906020018083116107f457829003601f168201915b505050505090806002018054610826906137c9565b80601f0160208091040260200160405190810160405280929190818152602001828054610852906137c9565b801561089f5780601f106108745761010080835404028352916020019161089f565b820191906000526020600020905b81548152906001019060200180831161088257829003601f168201915b5050505050908060030180546108b4906137c9565b80601f01602080910402602001604051908101604052809291908181526020018280546108e0906137c9565b801561092d5780601f106109025761010080835404028352916020019161092d565b820191906000526020600020905b81548152906001019060200180831161091057829003601f168201915b505050505090806004018054610942906137c9565b80601f016020809104026020016040519081016040528092919081815260200182805461096e906137c9565b80156109bb5780601f10610990576101008083540402835291602001916109bb565b820191906000526020600020905b81548152906001019060200180831161099e57829003601f168201915b5050505050908060050154908060060180546109d6906137c9565b80601f0160208091040260200160405190810160405280929190818152602001828054610a02906137c9565b8015610a4f5780601f10610a2457610100808354040283529160200191610a4f565b820191906000526020600020905b815481529060010190602001808311610a3257829003601f168201915b505050505090806007015490806008015490806009018054610a70906137c9565b80601f0160208091040260200160405190810160405280929190818152602001828054610a9c906137c9565b8015610ae95780601f10610abe57610100808354040283529160200191610ae9565b820191906000526020600020905b815481529060010190602001808311610acc57829003601f168201915b505050505090508a565b6004602052806000526040600020600091509050806000015490806001018054610b1c906137c9565b80601f0160208091040260200160405190810160405280929190818152602001828054610b48906137c9565b8015610b955780601f10610b6a57610100808354040283529160200191610b95565b820191906000526020600020905b815481529060010190602001808311610b7857829003601f168201915b505050505090806002018054610baa906137c9565b80601f0160208091040260200160405190810160405280929190818152602001828054610bd6906137c9565b8015610c235780601f10610bf857610100808354040283529160200191610c23565b820191906000526020600020905b815481529060010190602001808311610c0657829003601f168201915b505050505090806003018054610c38906137c9565b80601f0160208091040260200160405190810160405280929190818152602001828054610c64906137c9565b8015610cb15780601f10610c8657610100808354040283529160200191610cb1565b820191906000526020600020905b815481529060010190602001808311610c9457829003601f168201915b505050505090806004018054610cc6906137c9565b80601f0160208091040260200160405190810160405280929190818152602001828054610cf2906137c9565b8015610d3f5780601f10610d1457610100808354040283529160200191610d3f565b820191906000526020600020905b815481529060010190602001808311610d2257829003601f168201915b505050505090806005015490806006018054610d5a906137c9565b80601f0160208091040260200160405190810160405280929190818152602001828054610d86906137c9565b8015610dd35780601f10610da857610100808354040283529160200191610dd3565b820191906000526020600020905b815481529060010190602001808311610db657829003601f168201915b505050505090806007018054610de8906137c9565b80601f0160208091040260200160405190810160405280929190818152602001828054610e14906137c9565b8015610e615780601f10610e3657610100808354040283529160200191610e61565b820191906000526020600020905b815481529060010190602001808311610e4457829003601f168201915b505050505090806008018054610e76906137c9565b80601f0160208091040260200160405190810160405280929190818152602001828054610ea2906137c9565b8015610eef5780601f10610ec457610100808354040283529160200191610eef565b820191906000526020600020905b815481529060010190602001808311610ed257829003601f168201915b505050505090806009018054610f04906137c9565b80601f0160208091040260200160405190810160405280929190818152602001828054610f30906137c9565b8015610f7d5780601f10610f5257610100808354040283529160200191610f7d565b820191906000526020600020905b815481529060010190602001808311610f6057829003601f168201915b505050505090508a565b60005481565b6060600080604067ffffffffffffffff811115610fad57610fac612adf565b5b6040519080825280601f01601f191660200182016040528015610fdf5781602001600182028036833780820191505090505b509050600091505b80518260ff161015611139576000600f60f81b856002856110089190613858565b60ff166020811061101c5761101b613889565b5b1a60f81b1660f81c905060006004866002866110389190613858565b60ff166020811061104c5761104b613889565b5b1a60f81b7effffffffffffffffffffffffffffffffffffffffffffffffffffffffffffff1916901c60f81c905061108282611143565b838560ff168151811061109857611097613889565b5b60200101907effffffffffffffffffffffffffffffffffffffffffffffffffffffffffffff1916908160001a9053506001846110d491906138b8565b93506110df81611143565b838560ff16815181106110f5576110f4613889565b5b60200101907effffffffffffffffffffffffffffffffffffffffffffffffffffffffffffff1916908160001a90535050508180611131906138ed565b925050610fe7565b8092505050919050565b6000600a8260ff1610156111685760308261115e91906138b8565b60f81b905061117b565b60578261117591906138b8565b60f81b90505b919050565b60008282604051602001611195929190613973565b60405160208183030381529060405280519060200120905092915050565b60005b815181101561152d57600160008154809291906111d29061399b565b9190505550600061121f8383815181106111ef576111ee613889565b5b60200260200101516040015184848151811061120e5761120d613889565b5b602002602001015160a00151611180565b905061122a81610f8d565b600290816112389190613b8f565b50600060405180610140016040528060015481526020016002805461125c906137c9565b80601f0160208091040260200160405190810160405280929190818152602001828054611288906137c9565b80156112d55780601f106112aa576101008083540402835291602001916112d5565b820191906000526020600020905b8154815290600101906020018083116112b857829003601f168201915b505050505081526020018585815181106112f2576112f1613889565b5b602002602001015160400151815260200185858151811061131657611315613889565b5b602002602001015160600151815260200185858151811061133a57611339613889565b5b602002602001015160800151815260200185858151811061135e5761135d613889565b5b602002602001015160a00151815260200185858151811061138257611381613889565b5b602002602001015160c0015181526020018585815181106113a6576113a5613889565b5b602002602001015160e0015181526020018585815181106113ca576113c9613889565b5b6020026020010151610100015181526020018585815181106113ef576113ee613889565b5b602002602001015161012001518152509050806004600060015481526020019081526020016000206000820151816000015560208201518160010190816114369190613b8f565b50604082015181600201908161144c9190613b8f565b5060608201518160030190816114629190613b8f565b5060808201518160040190816114789190613b8f565b5060a0820151816005015560c08201518160060190816114989190613b8f565b5060e08201518160070190816114ae9190613b8f565b506101008201518160080190816114c59190613b8f565b506101208201518160090190816114dc9190613b8f565b509050506001600760026040516114f39190613ce4565b908152602001604051809103902060006101000a81548160ff021916908315150217905550505080806115259061399b565b9150506111b6565b5050565b6007818051602081018201805184825260208301602085012081835280955050505050506000915054906101000a900460ff1681565b60005b81518110156118c8576000808154809291906115859061399b565b919050555060006115d38383815181106115a2576115a1613889565b5b6020026020010151604001518484815181106115c1576115c0613889565b5b60200260200101516101000151611180565b90506115de81610f8d565b600290816115ec9190613b8f565b506000604051806101400160405280600054815260200160028054611610906137c9565b80601f016020809104026020016040519081016040528092919081815260200182805461163c906137c9565b80156116895780601f1061165e57610100808354040283529160200191611689565b820191906000526020600020905b81548152906001019060200180831161166c57829003601f168201915b505050505081526020018585815181106116a6576116a5613889565b5b60200260200101516040015181526020018585815181106116ca576116c9613889565b5b60200260200101516060015181526020018585815181106116ee576116ed613889565b5b602002602001015160800151815260200185858151811061171257611711613889565b5b602002602001015160a00151815260200185858151811061173657611735613889565b5b602002602001015160c00151815260200185858151811061175a57611759613889565b5b602002602001015160e00151815260200185858151811061177e5761177d613889565b5b6020026020010151610100015181526020018585815181106117a3576117a2613889565b5b6020026020010151610120015181525090508060036000805481526020019081526020016000206000820151816000015560208201518160010190816117e99190613b8f565b5060408201518160020190816117ff9190613b8f565b5060608201518160030190816118159190613b8f565b50608082015181600401908161182b9190613b8f565b5060a0820151816005015560c082015181600601908161184b9190613b8f565b5060e0820151816007015561010082015181600801556101208201518160090190816118779190613b8f565b5090505060016007600260405161188e9190613ce4565b908152602001604051809103902060006101000a81548160ff021916908315150217905550505080806118c09061399b565b91505061156a565b5050565b6118d4612870565b6005826040516118e49190613cfb565b90815260200160405180910390206040518061014001604052908160008201548152602001600182018054611918906137c9565b80601f0160208091040260200160405190810160405280929190818152602001828054611944906137c9565b80156119915780601f1061196657610100808354040283529160200191611991565b820191906000526020600020905b81548152906001019060200180831161197457829003601f168201915b505050505081526020016002820180546119aa906137c9565b80601f01602080910402602001604051908101604052809291908181526020018280546119d6906137c9565b8015611a235780601f106119f857610100808354040283529160200191611a23565b820191906000526020600020905b815481529060010190602001808311611a0657829003601f168201915b50505050508152602001600382018054611a3c906137c9565b80601f0160208091040260200160405190810160405280929190818152602001828054611a68906137c9565b8015611ab55780601f10611a8a57610100808354040283529160200191611ab5565b820191906000526020600020905b815481529060010190602001808311611a9857829003601f168201915b50505050508152602001600482018054611ace906137c9565b80601f0160208091040260200160405190810160405280929190818152602001828054611afa906137c9565b8015611b475780601f10611b1c57610100808354040283529160200191611b47565b820191906000526020600020905b815481529060010190602001808311611b2a57829003601f168201915b5050505050815260200160058201548152602001600682018054611b6a906137c9565b80601f0160208091040260200160405190810160405280929190818152602001828054611b96906137c9565b8015611be35780601f10611bb857610100808354040283529160200191611be3565b820191906000526020600020905b815481529060010190602001808311611bc657829003601f168201915b505050505081526020016007820154815260200160088201548152602001600982018054611c10906137c9565b80601f0160208091040260200160405190810160405280929190818152602001828054611c3c906137c9565b8015611c895780601f10611c5e57610100808354040283529160200191611c89565b820191906000526020600020905b815481529060010190602001808311611c6c57829003601f168201915b5050505050815250509050919050565b600681805160208101820180518482526020830160208501208183528095505050505050600091509050806000015490806001018054611cd8906137c9565b80601f0160208091040260200160405190810160405280929190818152602001828054611d04906137c9565b8015611d515780601f10611d2657610100808354040283529160200191611d51565b820191906000526020600020905b815481529060010190602001808311611d3457829003601f168201915b505050505090806002018054611d66906137c9565b80601f0160208091040260200160405190810160405280929190818152602001828054611d92906137c9565b8015611ddf5780601f10611db457610100808354040283529160200191611ddf565b820191906000526020600020905b815481529060010190602001808311611dc257829003601f168201915b505050505090806003018054611df4906137c9565b80601f0160208091040260200160405190810160405280929190818152602001828054611e20906137c9565b8015611e6d5780601f10611e4257610100808354040283529160200191611e6d565b820191906000526020600020905b815481529060010190602001808311611e5057829003601f168201915b505050505090806004018054611e82906137c9565b80601f0160208091040260200160405190810160405280929190818152602001828054611eae906137c9565b8015611efb5780601f10611ed057610100808354040283529160200191611efb565b820191906000526020600020905b815481529060010190602001808311611ede57829003601f168201915b505050505090806005015490806006018054611f16906137c9565b80601f0160208091040260200160405190810160405280929190818152602001828054611f42906137c9565b8015611f8f5780601f10611f6457610100808354040283529160200191611f8f565b820191906000526020600020905b815481529060010190602001808311611f7257829003601f168201915b505050505090806007018054611fa4906137c9565b80601f0160208091040260200160405190810160405280929190818152602001828054611fd0906137c9565b801561201d5780601f10611ff25761010080835404028352916020019161201d565b820191906000526020600020905b81548152906001019060200180831161200057829003601f168201915b505050505090806008018054612032906137c9565b80601f016020809104026020016040519081016040528092919081815260200182805461205e906137c9565b80156120ab5780601f10612080576101008083540402835291602001916120ab565b820191906000526020600020905b81548152906001019060200180831161208e57829003601f168201915b5050505050908060090180546120c0906137c9565b80601f01602080910402602001604051908101604052809291908181526020018280546120ec906137c9565b80156121395780601f1061210e57610100808354040283529160200191612139565b820191906000526020600020905b81548152906001019060200180831161211c57829003601f168201915b505050505090508a565b6000808154809291906121559061399b565b9190505550600060405180610140016040528060005481526020016040518060400160405280600381526020017f307830000000000000000000000000000000000000000000000000000000000081525081526020018a815260200189815260200188815260200187815260200186815260200185815260200184815260200183815250905080600360008054815260200190815260200160002060008201518160000155602082015181600101908161220f9190613b8f565b5060408201518160020190816122259190613b8f565b50606082015181600301908161223b9190613b8f565b5060808201518160040190816122519190613b8f565b5060a0820151816005015560c08201518160060190816122719190613b8f565b5060e08201518160070155610100820151816008015561012082015181600901908161229d9190613b8f565b5090505060016008600086815260200190815260200160002060006101000a81548160ff021916908315150217905550505050505050505050565b600060036000805481526020019081526020016000206040518061014001604052908160008201548152602001600182018054612314906137c9565b80601f0160208091040260200160405190810160405280929190818152602001828054612340906137c9565b801561238d5780601f106123625761010080835404028352916020019161238d565b820191906000526020600020905b81548152906001019060200180831161237057829003601f168201915b505050505081526020016002820180546123a6906137c9565b80601f01602080910402602001604051908101604052809291908181526020018280546123d2906137c9565b801561241f5780601f106123f45761010080835404028352916020019161241f565b820191906000526020600020905b81548152906001019060200180831161240257829003601f168201915b50505050508152602001600382018054612438906137c9565b80601f0160208091040260200160405190810160405280929190818152602001828054612464906137c9565b80156124b15780601f10612486576101008083540402835291602001916124b1565b820191906000526020600020905b81548152906001019060200180831161249457829003601f168201915b505050505081526020016004820180546124ca906137c9565b80601f01602080910402602001604051908101604052809291908181526020018280546124f6906137c9565b80156125435780601f1061251857610100808354040283529160200191612543565b820191906000526020600020905b81548152906001019060200180831161252657829003601f168201915b5050505050815260200160058201548152602001600682018054612566906137c9565b80601f0160208091040260200160405190810160405280929190818152602001828054612592906137c9565b80156125df5780601f106125b4576101008083540402835291602001916125df565b820191906000526020600020905b8154815290600101906020018083116125c257829003601f168201915b50505050508152602001600782015481526020016008820154815260200160098201805461260c906137c9565b80601f0160208091040260200160405190810160405280929190818152602001828054612638906137c9565b80156126855780601f1061265a57610100808354040283529160200191612685565b820191906000526020600020905b81548152906001019060200180831161266857829003601f168201915b50505050508152505090508181602001819052508060036000805481526020019081526020016000206000820151816000015560208201518160010190816126cd9190613b8f565b5060408201518160020190816126e39190613b8f565b5060608201518160030190816126f99190613b8f565b50608082015181600401908161270f9190613b8f565b5060a0820151816005015560c082015181600601908161272f9190613b8f565b5060e08201518160070155610100820151816008015561012082015181600901908161275b9190613b8f565b50905050806005836040516127709190613cfb565b908152602001604051809103902060008201518160000155602082015181600101908161279d9190613b8f565b5060408201518160020190816127b39190613b8f565b5060608201518160030190816127c99190613b8f565b5060808201518160040190816127df9190613b8f565b5060a0820151816005015560c08201518160060190816127ff9190613b8f565b5060e08201518160070155610100820151816008015561012082015181600901908161282b9190613b8f565b5090505060016007836040516128419190613cfb565b908152602001604051809103902060006101000a81548160ff0219169083151502179055505050565b60015481565b604051806101400160405280600081526020016060815260200160608152602001606081526020016060815260200160008152602001606081526020016000815260200160008152602001606081525090565b6000604051905090565b600080fd5b600080fd5b6000819050919050565b6128ea816128d7565b81146128f557600080fd5b50565b600081359050612907816128e1565b92915050565b600060208284031215612923576129226128cd565b5b6000612931848285016128f8565b91505092915050565b612943816128d7565b82525050565b600081519050919050565b600082825260208201905092915050565b60005b83811015612983578082015181840152602081019050612968565b60008484015250505050565b6000601f19601f8301169050919050565b60006129ab82612949565b6129b58185612954565b93506129c5818560208601612965565b6129ce8161298f565b840191505092915050565b6000610140820190506129ef600083018d61293a565b8181036020830152612a01818c6129a0565b90508181036040830152612a15818b6129a0565b90508181036060830152612a29818a6129a0565b90508181036080830152612a3d81896129a0565b9050612a4c60a083018861293a565b81810360c0830152612a5e81876129a0565b9050612a6d60e083018661293a565b612a7b61010083018561293a565b818103610120830152612a8e81846129a0565b90509b9a5050505050505050505050565b60008115159050919050565b612ab481612a9f565b82525050565b6000602082019050612acf6000830184612aab565b92915050565b600080fd5b600080fd5b7f4e487b7100000000000000000000000000000000000000000000000000000000600052604160045260246000fd5b612b178261298f565b810181811067ffffffffffffffff82111715612b3657612b35612adf565b5b80604052505050565b6000612b496128c3565b9050612b558282612b0e565b919050565b600067ffffffffffffffff821115612b7557612b74612adf565b5b612b7e8261298f565b9050602081019050919050565b82818337600083830152505050565b6000612bad612ba884612b5a565b612b3f565b905082815260208101848484011115612bc957612bc8612ada565b5b612bd4848285612b8b565b509392505050565b600082601f830112612bf157612bf0612ad5565b5b8135612c01848260208601612b9a565b91505092915050565b600060208284031215612c2057612c1f6128cd565b5b600082013567ffffffffffffffff811115612c3e57612c3d6128d2565b5b612c4a84828501612bdc565b91505092915050565b600061014082019050612c69600083018d61293a565b8181036020830152612c7b818c6129a0565b90508181036040830152612c8f818b6129a0565b90508181036060830152612ca3818a6129a0565b90508181036080830152612cb781896129a0565b9050612cc660a083018861293a565b81810360c0830152612cd881876129a0565b905081810360e0830152612cec81866129a0565b9050818103610100830152612d0181856129a0565b9050818103610120830152612d1681846129a0565b90509b9a5050505050505050505050565b6000602082019050612d3c600083018461293a565b92915050565b6000819050919050565b612d5581612d42565b8114612d6057600080fd5b50565b600081359050612d7281612d4c565b92915050565b600060208284031215612d8e57612d8d6128cd565b5b6000612d9c84828501612d63565b91505092915050565b60006020820190508181036000830152612dbf81846129a0565b905092915050565b600060ff82169050919050565b612ddd81612dc7565b8114612de857600080fd5b50565b600081359050612dfa81612dd4565b92915050565b600060208284031215612e1657612e156128cd565b5b6000612e2484828501612deb565b91505092915050565b60007fff0000000000000000000000000000000000000000000000000000000000000082169050919050565b612e6281612e2d565b82525050565b6000602082019050612e7d6000830184612e59565b92915050565b60008060408385031215612e9a57612e996128cd565b5b600083013567ffffffffffffffff811115612eb857612eb76128d2565b5b612ec485828601612bdc565b9250506020612ed5858286016128f8565b9150509250929050565b612ee881612d42565b82525050565b6000602082019050612f036000830184612edf565b92915050565b600067ffffffffffffffff821115612f2457612f23612adf565b5b602082029050602081019050919050565b600080fd5b600080fd5b600080fd5b60006101408284031215612f5b57612f5a612f3a565b5b612f66610140612b3f565b90506000612f76848285016128f8565b600083015250602082013567ffffffffffffffff811115612f9a57612f99612f3f565b5b612fa684828501612bdc565b602083015250604082013567ffffffffffffffff811115612fca57612fc9612f3f565b5b612fd684828501612bdc565b604083015250606082013567ffffffffffffffff811115612ffa57612ff9612f3f565b5b61300684828501612bdc565b606083015250608082013567ffffffffffffffff81111561302a57613029612f3f565b5b61303684828501612bdc565b60808301525060a061304a848285016128f8565b60a08301525060c082013567ffffffffffffffff81111561306e5761306d612f3f565b5b61307a84828501612bdc565b60c08301525060e082013567ffffffffffffffff81111561309e5761309d612f3f565b5b6130aa84828501612bdc565b60e08301525061010082013567ffffffffffffffff8111156130cf576130ce612f3f565b5b6130db84828501612bdc565b6101008301525061012082013567ffffffffffffffff81111561310157613100612f3f565b5b61310d84828501612bdc565b6101208301525092915050565b600061312d61312884612f09565b612b3f565b905080838252602082019050602084028301858111156131505761314f612f35565b5b835b8181101561319757803567ffffffffffffffff81111561317557613174612ad5565b5b8086016131828982612f44565b85526020850194505050602081019050613152565b5050509392505050565b600082601f8301126131b6576131b5612ad5565b5b81356131c684826020860161311a565b91505092915050565b6000602082840312156131e5576131e46128cd565b5b600082013567ffffffffffffffff811115613203576132026128d2565b5b61320f848285016131a1565b91505092915050565b600067ffffffffffffffff82111561323357613232612adf565b5b602082029050602081019050919050565b6000610140828403121561325b5761325a612f3a565b5b613266610140612b3f565b90506000613276848285016128f8565b600083015250602082013567ffffffffffffffff81111561329a57613299612f3f565b5b6132a684828501612bdc565b602083015250604082013567ffffffffffffffff8111156132ca576132c9612f3f565b5b6132d684828501612bdc565b604083015250606082013567ffffffffffffffff8111156132fa576132f9612f3f565b5b61330684828501612bdc565b606083015250608082013567ffffffffffffffff81111561332a57613329612f3f565b5b61333684828501612bdc565b60808301525060a061334a848285016128f8565b60a08301525060c082013567ffffffffffffffff81111561336e5761336d612f3f565b5b61337a84828501612bdc565b60c08301525060e061338e848285016128f8565b60e0830152506101006133a3848285016128f8565b6101008301525061012082013567ffffffffffffffff8111156133c9576133c8612f3f565b5b6133d584828501612bdc565b6101208301525092915050565b60006133f56133f084613218565b612b3f565b9050808382526020820190506020840283018581111561341857613417612f35565b5b835b8181101561345f57803567ffffffffffffffff81111561343d5761343c612ad5565b5b80860161344a8982613244565b8552602085019450505060208101905061341a565b5050509392505050565b600082601f83011261347e5761347d612ad5565b5b813561348e8482602086016133e2565b91505092915050565b6000602082840312156134ad576134ac6128cd565b5b600082013567ffffffffffffffff8111156134cb576134ca6128d2565b5b6134d784828501613469565b91505092915050565b6134e9816128d7565b82525050565b600082825260208201905092915050565b600061350b82612949565b61351581856134ef565b9350613525818560208601612965565b61352e8161298f565b840191505092915050565b60006101408301600083015161355260008601826134e0565b506020830151848203602086015261356a8282613500565b915050604083015184820360408601526135848282613500565b9150506060830151848203606086015261359e8282613500565b915050608083015184820360808601526135b88282613500565b91505060a08301516135cd60a08601826134e0565b5060c083015184820360c08601526135e58282613500565b91505060e08301516135fa60e08601826134e0565b5061010083015161360f6101008601826134e0565b506101208301518482036101208601526136298282613500565b9150508091505092915050565b600060208201905081810360008301526136508184613539565b905092915050565b600080600080600080600080610100898b031215613679576136786128cd565b5b600089013567ffffffffffffffff811115613697576136966128d2565b5b6136a38b828c01612bdc565b985050602089013567ffffffffffffffff8111156136c4576136c36128d2565b5b6136d08b828c01612bdc565b975050604089013567ffffffffffffffff8111156136f1576136f06128d2565b5b6136fd8b828c01612bdc565b965050606061370e8b828c016128f8565b955050608089013567ffffffffffffffff81111561372f5761372e6128d2565b5b61373b8b828c01612bdc565b94505060a061374c8b828c016128f8565b93505060c061375d8b828c016128f8565b92505060e089013567ffffffffffffffff81111561377e5761377d6128d2565b5b61378a8b828c01612bdc565b9150509295985092959890939650565b7f4e487b7100000000000000000000000000000000000000000000000000000000600052602260045260246000fd5b600060028204905060018216806137e157607f821691505b6020821081036137f4576137f361379a565b5b50919050565b7f4e487b7100000000000000000000000000000000000000000000000000000000600052601260045260246000fd5b7f4e487b7100000000000000000000000000000000000000000000000000000000600052601160045260246000fd5b600061386382612dc7565b915061386e83612dc7565b92508261387e5761387d6137fa565b5b828204905092915050565b7f4e487b7100000000000000000000000000000000000000000000000000000000600052603260045260246000fd5b60006138c382612dc7565b91506138ce83612dc7565b9250828201905060ff8111156138e7576138e6613829565b5b92915050565b60006138f882612dc7565b915060ff820361390b5761390a613829565b5b600182019050919050565b600081905092915050565b600061392c82612949565b6139368185613916565b9350613946818560208601612965565b80840191505092915050565b6000819050919050565b61396d613968826128d7565b613952565b82525050565b600061397f8285613921565b915061398b828461395c565b6020820191508190509392505050565b60006139a6826128d7565b91507fffffffffffffffffffffffffffffffffffffffffffffffffffffffffffffffff82036139d8576139d7613829565b5b600182019050919050565b60008190508160005260206000209050919050565b60006020601f8301049050919050565b600082821b905092915050565b600060088302613a457fffffffffffffffffffffffffffffffffffffffffffffffffffffffffffffffff82613a08565b613a4f8683613a08565b95508019841693508086168417925050509392505050565b6000819050919050565b6000613a8c613a87613a82846128d7565b613a67565b6128d7565b9050919050565b6000819050919050565b613aa683613a71565b613aba613ab282613a93565b848454613a15565b825550505050565b600090565b613acf613ac2565b613ada818484613a9d565b505050565b5b81811015613afe57613af3600082613ac7565b600181019050613ae0565b5050565b601f821115613b4357613b14816139e3565b613b1d846139f8565b81016020851015613b2c578190505b613b40613b38856139f8565b830182613adf565b50505b505050565b600082821c905092915050565b6000613b6660001984600802613b48565b1980831691505092915050565b6000613b7f8383613b55565b9150826002028217905092915050565b613b9882612949565b67ffffffffffffffff811115613bb157613bb0612adf565b5b613bbb82546137c9565b613bc6828285613b02565b600060209050601f831160018114613bf95760008415613be7578287015190505b613bf18582613b73565b865550613c59565b601f198416613c07866139e3565b60005b82811015613c2f57848901518255600182019150602085019450602081019050613c0a565b86831015613c4c5784890151613c48601f891682613b55565b8355505b6001600288020188555050505b505050505050565b60008154613c6e816137c9565b613c788186613916565b94506001821660008114613c935760018114613ca857613cdb565b60ff1983168652811515820286019350613cdb565b613cb1856139e3565b60005b83811015613cd357815481890152600182019150602081019050613cb4565b838801955050505b50505092915050565b6000613cf08284613c61565b915081905092915050565b6000613d078284613921565b91508190509291505056fea2646970667358221220b486b68406369e3ceaaf794f078fcd22cbebc892ef47870f917532fef094a78964736f6c63430008110033",
  "devdoc": {
    "kind": "dev",
    "methods": {},
    "version": 1
  },
  "userdoc": {
    "kind": "user",
    "methods": {},
    "version": 1
  },
  "storageLayout": {
    "storage": [
      {
        "astId": 4,
        "contract": "contracts/Ecertify.sol:Ecertify",
        "label": "certificateCounter",
        "offset": 0,
        "slot": "0",
        "type": "t_uint256"
      },
      {
        "astId": 6,
        "contract": "contracts/Ecertify.sol:Ecertify",
        "label": "eventCertificateCounter",
        "offset": 0,
        "slot": "1",
        "type": "t_uint256"
      },
      {
        "astId": 8,
        "contract": "contracts/Ecertify.sol:Ecertify",
        "label": "convertedHash",
        "offset": 0,
        "slot": "2",
        "type": "t_string_storage"
      },
      {
        "astId": 55,
        "contract": "contracts/Ecertify.sol:Ecertify",
        "label": "allCertificates",
        "offset": 0,
        "slot": "3",
        "type": "t_mapping(t_uint256,t_struct(Certificate)29_storage)"
      },
      {
        "astId": 60,
        "contract": "contracts/Ecertify.sol:Ecertify",
        "label": "allEventCertificates",
        "offset": 0,
        "slot": "4",
        "type": "t_mapping(t_uint256,t_struct(EventCertificate)50_storage)"
      },
      {
        "astId": 65,
        "contract": "contracts/Ecertify.sol:Ecertify",
        "label": "allhashedCertificates",
        "offset": 0,
        "slot": "5",
        "type": "t_mapping(t_string_memory_ptr,t_struct(Certificate)29_storage)"
      },
      {
        "astId": 70,
        "contract": "contracts/Ecertify.sol:Ecertify",
        "label": "allhashedEventCertificates",
        "offset": 0,
        "slot": "6",
        "type": "t_mapping(t_string_memory_ptr,t_struct(EventCertificate)50_storage)"
      },
      {
        "astId": 74,
        "contract": "contracts/Ecertify.sol:Ecertify",
        "label": "certficateHashExist",
        "offset": 0,
        "slot": "7",
        "type": "t_mapping(t_string_memory_ptr,t_bool)"
      },
      {
        "astId": 78,
        "contract": "contracts/Ecertify.sol:Ecertify",
        "label": "sapIdExist",
        "offset": 0,
        "slot": "8",
        "type": "t_mapping(t_uint256,t_bool)"
      }
    ],
    "types": {
      "t_bool": {
        "encoding": "inplace",
        "label": "bool",
        "numberOfBytes": "1"
      },
      "t_mapping(t_string_memory_ptr,t_bool)": {
        "encoding": "mapping",
        "key": "t_string_memory_ptr",
        "label": "mapping(string => bool)",
        "numberOfBytes": "32",
        "value": "t_bool"
      },
      "t_mapping(t_string_memory_ptr,t_struct(Certificate)29_storage)": {
        "encoding": "mapping",
        "key": "t_string_memory_ptr",
        "label": "mapping(string => struct Ecertify.Certificate)",
        "numberOfBytes": "32",
        "value": "t_struct(Certificate)29_storage"
      },
      "t_mapping(t_string_memory_ptr,t_struct(EventCertificate)50_storage)": {
        "encoding": "mapping",
        "key": "t_string_memory_ptr",
        "label": "mapping(string => struct Ecertify.EventCertificate)",
        "numberOfBytes": "32",
        "value": "t_struct(EventCertificate)50_storage"
      },
      "t_mapping(t_uint256,t_bool)": {
        "encoding": "mapping",
        "key": "t_uint256",
        "label": "mapping(uint256 => bool)",
        "numberOfBytes": "32",
        "value": "t_bool"
      },
      "t_mapping(t_uint256,t_struct(Certificate)29_storage)": {
        "encoding": "mapping",
        "key": "t_uint256",
        "label": "mapping(uint256 => struct Ecertify.Certificate)",
        "numberOfBytes": "32",
        "value": "t_struct(Certificate)29_storage"
      },
      "t_mapping(t_uint256,t_struct(EventCertificate)50_storage)": {
        "encoding": "mapping",
        "key": "t_uint256",
        "label": "mapping(uint256 => struct Ecertify.EventCertificate)",
        "numberOfBytes": "32",
        "value": "t_struct(EventCertificate)50_storage"
      },
      "t_string_memory_ptr": {
        "encoding": "bytes",
        "label": "string",
        "numberOfBytes": "32"
      },
      "t_string_storage": {
        "encoding": "bytes",
        "label": "string",
        "numberOfBytes": "32"
      },
      "t_struct(Certificate)29_storage": {
        "encoding": "inplace",
        "label": "struct Ecertify.Certificate",
        "members": [
          {
            "astId": 10,
            "contract": "contracts/Ecertify.sol:Ecertify",
            "label": "certid",
            "offset": 0,
            "slot": "0",
            "type": "t_uint256"
          },
          {
            "astId": 12,
            "contract": "contracts/Ecertify.sol:Ecertify",
            "label": "transactionHash",
            "offset": 0,
            "slot": "1",
            "type": "t_string_storage"
          },
          {
            "astId": 14,
            "contract": "contracts/Ecertify.sol:Ecertify",
            "label": "name",
            "offset": 0,
            "slot": "2",
            "type": "t_string_storage"
          },
          {
            "astId": 16,
            "contract": "contracts/Ecertify.sol:Ecertify",
            "label": "course",
            "offset": 0,
            "slot": "3",
            "type": "t_string_storage"
          },
          {
            "astId": 18,
            "contract": "contracts/Ecertify.sol:Ecertify",
            "label": "email",
            "offset": 0,
            "slot": "4",
            "type": "t_string_storage"
          },
          {
            "astId": 20,
            "contract": "contracts/Ecertify.sol:Ecertify",
            "label": "passoutYear",
            "offset": 0,
            "slot": "5",
            "type": "t_uint256"
          },
          {
            "astId": 22,
            "contract": "contracts/Ecertify.sol:Ecertify",
            "label": "percentage",
            "offset": 0,
            "slot": "6",
            "type": "t_string_storage"
          },
          {
            "astId": 24,
            "contract": "contracts/Ecertify.sol:Ecertify",
            "label": "SAP",
            "offset": 0,
            "slot": "7",
            "type": "t_uint256"
          },
          {
            "astId": 26,
            "contract": "contracts/Ecertify.sol:Ecertify",
            "label": "contact",
            "offset": 0,
            "slot": "8",
            "type": "t_uint256"
          },
          {
            "astId": 28,
            "contract": "contracts/Ecertify.sol:Ecertify",
            "label": "issueDate",
            "offset": 0,
            "slot": "9",
            "type": "t_string_storage"
          }
        ],
        "numberOfBytes": "320"
      },
      "t_struct(EventCertificate)50_storage": {
        "encoding": "inplace",
        "label": "struct Ecertify.EventCertificate",
        "members": [
          {
            "astId": 31,
            "contract": "contracts/Ecertify.sol:Ecertify",
            "label": "certid",
            "offset": 0,
            "slot": "0",
            "type": "t_uint256"
          },
          {
            "astId": 33,
            "contract": "contracts/Ecertify.sol:Ecertify",
            "label": "transactionHash",
            "offset": 0,
            "slot": "1",
            "type": "t_string_storage"
          },
          {
            "astId": 35,
            "contract": "contracts/Ecertify.sol:Ecertify",
            "label": "name",
            "offset": 0,
            "slot": "2",
            "type": "t_string_storage"
          },
          {
            "astId": 37,
            "contract": "contracts/Ecertify.sol:Ecertify",
            "label": "email",
            "offset": 0,
            "slot": "3",
            "type": "t_string_storage"
          },
          {
            "astId": 39,
            "contract": "contracts/Ecertify.sol:Ecertify",
            "label": "domain",
            "offset": 0,
            "slot": "4",
            "type": "t_string_storage"
          },
          {
            "astId": 41,
            "contract": "contracts/Ecertify.sol:Ecertify",
            "label": "contact",
            "offset": 0,
            "slot": "5",
            "type": "t_uint256"
          },
          {
            "astId": 43,
            "contract": "contracts/Ecertify.sol:Ecertify",
            "label": "eventName",
            "offset": 0,
            "slot": "6",
            "type": "t_string_storage"
          },
          {
            "astId": 45,
            "contract": "contracts/Ecertify.sol:Ecertify",
            "label": "eventType",
            "offset": 0,
            "slot": "7",
            "type": "t_string_storage"
          },
          {
            "astId": 47,
            "contract": "contracts/Ecertify.sol:Ecertify",
            "label": "eventDate",
            "offset": 0,
            "slot": "8",
            "type": "t_string_storage"
          },
          {
            "astId": 49,
            "contract": "contracts/Ecertify.sol:Ecertify",
            "label": "issueDate",
            "offset": 0,
            "slot": "9",
            "type": "t_string_storage"
          }
        ],
        "numberOfBytes": "320"
      },
      "t_uint256": {
        "encoding": "inplace",
        "label": "uint256",
        "numberOfBytes": "32"
      }
    }
  }
}