{
  "contractName": "Ecertify",
  "abi": [
    {
      "inputs": [
        {
          "internalType": "uint256",
          "name": "",
          "type": "uint256"
        }
      ],
      "name": "allCertificates",
      "outputs": [
        {
          "internalType": "uint256",
          "name": "certid",
          "type": "uint256"
        },
        {
          "internalType": "string",
          "name": "transactionHash",
          "type": "string"
        },
        {
          "internalType": "string",
          "name": "name",
          "type": "string"
        },
        {
          "internalType": "string",
          "name": "course",
          "type": "string"
        },
        {
          "internalType": "string",
          "name": "email",
          "type": "string"
        },
        {
          "internalType": "uint256",
          "name": "passoutYear",
          "type": "uint256"
        },
        {
          "internalType": "string",
          "name": "percentage",
          "type": "string"
        },
        {
          "internalType": "uint256",
          "name": "SAP",
          "type": "uint256"
        },
        {
          "internalType": "uint256",
          "name": "contact",
          "type": "uint256"
        },
        {
          "internalType": "string",
          "name": "issueDate",
          "type": "string"
        }
      ],
      "stateMutability": "view",
      "type": "function",
      "constant": true
    },
    {
      "inputs": [
        {
          "internalType": "string",
          "name": "",
          "type": "string"
        }
      ],
      "name": "allhashedCertificates",
      "outputs": [
        {
          "internalType": "uint256",
          "name": "certid",
          "type": "uint256"
        },
        {
          "internalType": "string",
          "name": "transactionHash",
          "type": "string"
        },
        {
          "internalType": "string",
          "name": "name",
          "type": "string"
        },
        {
          "internalType": "string",
          "name": "course",
          "type": "string"
        },
        {
          "internalType": "string",
          "name": "email",
          "type": "string"
        },
        {
          "internalType": "uint256",
          "name": "passoutYear",
          "type": "uint256"
        },
        {
          "internalType": "string",
          "name": "percentage",
          "type": "string"
        },
        {
          "internalType": "uint256",
          "name": "SAP",
          "type": "uint256"
        },
        {
          "internalType": "uint256",
          "name": "contact",
          "type": "uint256"
        },
        {
          "internalType": "string",
          "name": "issueDate",
          "type": "string"
        }
      ],
      "stateMutability": "view",
      "type": "function",
      "constant": true
    },
    {
      "inputs": [
        {
          "internalType": "string",
          "name": "",
          "type": "string"
        }
      ],
      "name": "certficateHashExist",
      "outputs": [
        {
          "internalType": "bool",
          "name": "",
          "type": "bool"
        }
      ],
      "stateMutability": "view",
      "type": "function",
      "constant": true
    },
    {
      "inputs": [],
      "name": "certificateCounter",
      "outputs": [
        {
          "internalType": "uint256",
          "name": "",
          "type": "uint256"
        }
      ],
      "stateMutability": "view",
      "type": "function",
      "constant": true
    },
    {
      "inputs": [
        {
          "internalType": "uint256",
          "name": "",
          "type": "uint256"
        }
      ],
      "name": "sapIdExist",
      "outputs": [
        {
          "internalType": "bool",
          "name": "",
          "type": "bool"
        }
      ],
      "stateMutability": "view",
      "type": "function",
      "constant": true
    },
    {
      "inputs": [
        {
          "internalType": "string",
          "name": "_name",
          "type": "string"
        },
        {
          "internalType": "string",
          "name": "_course",
          "type": "string"
        },
        {
          "internalType": "string",
          "name": "_email",
          "type": "string"
        },
        {
          "internalType": "uint256",
          "name": "_passoutYear",
          "type": "uint256"
        },
        {
          "internalType": "string",
          "name": "_percentage",
          "type": "string"
        },
        {
          "internalType": "uint256",
          "name": "_SAP",
          "type": "uint256"
        },
        {
          "internalType": "uint256",
          "name": "_phone",
          "type": "uint256"
        },
        {
          "internalType": "string",
          "name": "_issueDate",
          "type": "string"
        }
      ],
      "name": "addCertificate",
      "outputs": [],
      "stateMutability": "nonpayable",
      "type": "function"
    },
    {
      "inputs": [
        {
          "internalType": "string",
          "name": "_transactionHash",
          "type": "string"
        }
      ],
      "name": "updateTransaction",
      "outputs": [],
      "stateMutability": "nonpayable",
      "type": "function"
    },
    {
      "inputs": [
        {
          "internalType": "string",
          "name": "userAddress",
          "type": "string"
        }
      ],
      "name": "getValueAtMapping",
      "outputs": [
        {
          "components": [
            {
              "internalType": "uint256",
              "name": "certid",
              "type": "uint256"
            },
            {
              "internalType": "string",
              "name": "transactionHash",
              "type": "string"
            },
            {
              "internalType": "string",
              "name": "name",
              "type": "string"
            },
            {
              "internalType": "string",
              "name": "course",
              "type": "string"
            },
            {
              "internalType": "string",
              "name": "email",
              "type": "string"
            },
            {
              "internalType": "uint256",
              "name": "passoutYear",
              "type": "uint256"
            },
            {
              "internalType": "string",
              "name": "percentage",
              "type": "string"
            },
            {
              "internalType": "uint256",
              "name": "SAP",
              "type": "uint256"
            },
            {
              "internalType": "uint256",
              "name": "contact",
              "type": "uint256"
            },
            {
              "internalType": "string",
              "name": "issueDate",
              "type": "string"
            }
          ],
          "internalType": "struct Ecertify.Certificate",
          "name": "",
          "type": "tuple"
        }
      ],
      "stateMutability": "view",
      "type": "function",
      "constant": true
    },
    {
      "inputs": [
        {
          "internalType": "bytes32",
          "name": "_bytes32",
          "type": "bytes32"
        }
      ],
      "name": "bytes32ToString",
      "outputs": [
        {
          "internalType": "string",
          "name": "",
          "type": "string"
        }
      ],
      "stateMutability": "pure",
      "type": "function",
      "constant": true
    },
    {
      "inputs": [
        {
          "internalType": "uint8",
          "name": "_uint8",
          "type": "uint8"
        }
      ],
      "name": "toByte",
      "outputs": [
        {
          "internalType": "bytes1",
          "name": "",
          "type": "bytes1"
        }
      ],
      "stateMutability": "pure",
      "type": "function",
      "constant": true
    },
    {
      "inputs": [
        {
          "internalType": "string",
          "name": "_string",
          "type": "string"
        }
      ],
      "name": "hash",
      "outputs": [
        {
          "internalType": "bytes32",
          "name": "",
          "type": "bytes32"
        }
      ],
      "stateMutability": "pure",
      "type": "function",
      "constant": true
    },
    {
      "inputs": [
        {
          "components": [
            {
              "internalType": "uint256",
              "name": "certid",
              "type": "uint256"
            },
            {
              "internalType": "string",
              "name": "transactionHash",
              "type": "string"
            },
            {
              "internalType": "string",
              "name": "name",
              "type": "string"
            },
            {
              "internalType": "string",
              "name": "course",
              "type": "string"
            },
            {
              "internalType": "string",
              "name": "email",
              "type": "string"
            },
            {
              "internalType": "uint256",
              "name": "passoutYear",
              "type": "uint256"
            },
            {
              "internalType": "string",
              "name": "percentage",
              "type": "string"
            },
            {
              "internalType": "uint256",
              "name": "SAP",
              "type": "uint256"
            },
            {
              "internalType": "uint256",
              "name": "contact",
              "type": "uint256"
            },
            {
              "internalType": "string",
              "name": "issueDate",
              "type": "string"
            }
          ],
          "internalType": "struct Ecertify.Certificate[]",
          "name": "b",
          "type": "tuple[]"
        }
      ],
      "name": "addInBulk",
      "outputs": [],
      "stateMutability": "nonpayable",
      "type": "function"
    }
  ],
  "bytecode": "0x608060405234801561001057600080fd5b50612839806100206000396000f3fe608060405234801561001057600080fd5b50600436106100b45760003560e01c8063b411ee9411610071578063b411ee94146101d9578063d3a3f08214610209578063da4039df14610239578063dbdd28cf14610255578063e9a80da714610285578063f31125cf146102a1576100b4565b8063053c8e25146100b957806312e25330146100f25780631e830c3f1461012257806367764b261461015b5780639201de5514610179578063a86b73f0146101a9575b600080fd5b6100d360048036038101906100ce91906121c7565b6102bd565b6040516100e99a99989796959493929190612570565b60405180910390f35b61010c600480360381019061010791906121c7565b6106a1565b60405161011991906124c0565b60405180910390f35b61013c6004803603810190610137919061205c565b6106c1565b6040516101529a99989796959493929190612570565b60405180910390f35b610163610abb565b6040516101709190612555565b60405180910390f35b610193600480360381019061018e9190612033565b610ac1565b6040516101a09190612511565b60405180910390f35b6101c360048036038101906101be91906121f0565b610c4c565b6040516101d091906124db565b60405180910390f35b6101f360048036038101906101ee919061205c565b610c77565b60405161020091906124f6565b60405180910390f35b610223600480360381019061021e919061205c565b610ca7565b60405161023091906124c0565b60405180910390f35b610253600480360381019061024e9190611ff2565b610cdd565b005b61026f600480360381019061026a919061205c565b611018565b60405161027c9190612533565b60405180910390f35b61029f600480360381019061029a919061209d565b611445565b005b6102bb60048036038101906102b6919061205c565b6115fe565b005b6002602052806000526040600020600091509050806000015490806001018054600181600116156101000203166002900480601f01602080910402602001604051908101604052809291908181526020018280546001816001161561010002031660029004801561036f5780601f106103445761010080835404028352916020019161036f565b820191906000526020600020905b81548152906001019060200180831161035257829003601f168201915b505050505090806002018054600181600116156101000203166002900480601f01602080910402602001604051908101604052809291908181526020018280546001816001161561010002031660029004801561040d5780601f106103e25761010080835404028352916020019161040d565b820191906000526020600020905b8154815290600101906020018083116103f057829003601f168201915b505050505090806003018054600181600116156101000203166002900480601f0160208091040260200160405190810160405280929190818152602001828054600181600116156101000203166002900480156104ab5780601f10610480576101008083540402835291602001916104ab565b820191906000526020600020905b81548152906001019060200180831161048e57829003601f168201915b505050505090806004018054600181600116156101000203166002900480601f0160208091040260200160405190810160405280929190818152602001828054600181600116156101000203166002900480156105495780601f1061051e57610100808354040283529160200191610549565b820191906000526020600020905b81548152906001019060200180831161052c57829003601f168201915b505050505090806005015490806006018054600181600116156101000203166002900480601f0160208091040260200160405190810160405280929190818152602001828054600181600116156101000203166002900480156105ed5780601f106105c2576101008083540402835291602001916105ed565b820191906000526020600020905b8154815290600101906020018083116105d057829003601f168201915b505050505090806007015490806008015490806009018054600181600116156101000203166002900480601f0160208091040260200160405190810160405280929190818152602001828054600181600116156101000203166002900480156106975780601f1061066c57610100808354040283529160200191610697565b820191906000526020600020905b81548152906001019060200180831161067a57829003601f168201915b505050505090508a565b60056020528060005260406000206000915054906101000a900460ff1681565b600381805160208101820180518482526020830160208501208183528095505050505050600091509050806000015490806001018054600181600116156101000203166002900480601f0160208091040260200160405190810160405280929190818152602001828054600181600116156101000203166002900480156107895780601f1061075e57610100808354040283529160200191610789565b820191906000526020600020905b81548152906001019060200180831161076c57829003601f168201915b505050505090806002018054600181600116156101000203166002900480601f0160208091040260200160405190810160405280929190818152602001828054600181600116156101000203166002900480156108275780601f106107fc57610100808354040283529160200191610827565b820191906000526020600020905b81548152906001019060200180831161080a57829003601f168201915b505050505090806003018054600181600116156101000203166002900480601f0160208091040260200160405190810160405280929190818152602001828054600181600116156101000203166002900480156108c55780601f1061089a576101008083540402835291602001916108c5565b820191906000526020600020905b8154815290600101906020018083116108a857829003601f168201915b505050505090806004018054600181600116156101000203166002900480601f0160208091040260200160405190810160405280929190818152602001828054600181600116156101000203166002900480156109635780601f1061093857610100808354040283529160200191610963565b820191906000526020600020905b81548152906001019060200180831161094657829003601f168201915b505050505090806005015490806006018054600181600116156101000203166002900480601f016020809104026020016040519081016040528092919081815260200182805460018160011615610100020316600290048015610a075780601f106109dc57610100808354040283529160200191610a07565b820191906000526020600020905b8154815290600101906020018083116109ea57829003601f168201915b505050505090806007015490806008015490806009018054600181600116156101000203166002900480601f016020809104026020016040519081016040528092919081815260200182805460018160011615610100020316600290048015610ab15780601f10610a8657610100808354040283529160200191610ab1565b820191906000526020600020905b815481529060010190602001808311610a9457829003601f168201915b505050505090508a565b60005481565b6060600080604067ffffffffffffffff81118015610ade57600080fd5b506040519080825280601f01601f191660200182016040528015610b115781602001600182028036833780820191505090505b509050600091505b80518260ff161015610c42576000600f60f81b8560028560ff1681610b3a57fe5b0460ff1660208110610b4857fe5b1a60f81b1660f81c9050600060048660028660ff1681610b6457fe5b0460ff1660208110610b7257fe5b1a60f81b7effffffffffffffffffffffffffffffffffffffffffffffffffffffffffffff1916901c60f81c9050610ba882610c4c565b838560ff1681518110610bb757fe5b60200101907effffffffffffffffffffffffffffffffffffffffffffffffffffffffffffff1916908160001a905350600184019350610bf581610c4c565b838560ff1681518110610c0457fe5b60200101907effffffffffffffffffffffffffffffffffffffffffffffffffffffffffffff1916908160001a90535050508180600101925050610b19565b8092505050919050565b6000600a8260ff161015610c68576030820160f81b9050610c72565b6057820160f81b90505b919050565b600081604051602001610c8a9190612492565b604051602081830303815290604052805190602001209050919050565b6004818051602081018201805184825260208301602085012081835280955050505050506000915054906101000a900460ff1681565b60005b81518110156110145760008081548092919060010191905055506000610d1c838381518110610d0b57fe5b602002602001015160400151610c77565b9050610d2781610ac1565b60019080519060200190610d3c929190611c44565b506000604051806101400160405280600054815260200160018054600181600116156101000203166002900480601f016020809104026020016040519081016040528092919081815260200182805460018160011615610100020316600290048015610de95780601f10610dbe57610100808354040283529160200191610de9565b820191906000526020600020905b815481529060010190602001808311610dcc57829003601f168201915b50505050508152602001858581518110610dff57fe5b6020026020010151604001518152602001858581518110610e1c57fe5b6020026020010151606001518152602001858581518110610e3957fe5b6020026020010151608001518152602001858581518110610e5657fe5b602002602001015160a001518152602001858581518110610e7357fe5b602002602001015160c001518152602001858581518110610e9057fe5b602002602001015160e001518152602001858581518110610ead57fe5b602002602001015161010001518152602001858581518110610ecb57fe5b602002602001015161012001518152509050806002600080548152602001908152602001600020600082015181600001556020820151816001019080519060200190610f18929190611c44565b506040820151816002019080519060200190610f35929190611c44565b506060820151816003019080519060200190610f52929190611c44565b506080820151816004019080519060200190610f6f929190611c44565b5060a0820151816005015560c0820151816006019080519060200190610f96929190611c44565b5060e082015181600701556101008201518160080155610120820151816009019080519060200190610fc9929190611c44565b50905050600160046001604051610fe091906124a9565b908152602001604051809103902060006101000a81548160ff02191690831515021790555050508080600101915050610ce0565b5050565b611020611cd2565b6003826040516110309190612492565b90815260200160405180910390206040518061014001604052908160008201548152602001600182018054600181600116156101000203166002900480601f0160208091040260200160405190810160405280929190818152602001828054600181600116156101000203166002900480156110ed5780601f106110c2576101008083540402835291602001916110ed565b820191906000526020600020905b8154815290600101906020018083116110d057829003601f168201915b50505050508152602001600282018054600181600116156101000203166002900480601f01602080910402602001604051908101604052809291908181526020018280546001816001161561010002031660029004801561118f5780601f106111645761010080835404028352916020019161118f565b820191906000526020600020905b81548152906001019060200180831161117257829003601f168201915b50505050508152602001600382018054600181600116156101000203166002900480601f0160208091040260200160405190810160405280929190818152602001828054600181600116156101000203166002900480156112315780601f1061120657610100808354040283529160200191611231565b820191906000526020600020905b81548152906001019060200180831161121457829003601f168201915b50505050508152602001600482018054600181600116156101000203166002900480601f0160208091040260200160405190810160405280929190818152602001828054600181600116156101000203166002900480156112d35780601f106112a8576101008083540402835291602001916112d3565b820191906000526020600020905b8154815290600101906020018083116112b657829003601f168201915b5050505050815260200160058201548152602001600682018054600181600116156101000203166002900480601f01602080910402602001604051908101604052809291908181526020018280546001816001161561010002031660029004801561137f5780601f106113545761010080835404028352916020019161137f565b820191906000526020600020905b81548152906001019060200180831161136257829003601f168201915b505050505081526020016007820154815260200160088201548152602001600982018054600181600116156101000203166002900480601f0160208091040260200160405190810160405280929190818152602001828054600181600116156101000203166002900480156114355780601f1061140a57610100808354040283529160200191611435565b820191906000526020600020905b81548152906001019060200180831161141857829003601f168201915b5050505050815250509050919050565b6000808154809291906001019190505550600060405180610140016040528060005481526020016040518060400160405280600381526020017f307830000000000000000000000000000000000000000000000000000000000081525081526020018a8152602001898152602001888152602001878152602001868152602001858152602001848152602001838152509050806002600080548152602001908152602001600020600082015181600001556020820151816001019080519060200190611512929190611c44565b50604082015181600201908051906020019061152f929190611c44565b50606082015181600301908051906020019061154c929190611c44565b506080820151816004019080519060200190611569929190611c44565b5060a0820151816005015560c0820151816006019080519060200190611590929190611c44565b5060e0820151816007015561010082015181600801556101208201518160090190805190602001906115c3929190611c44565b5090505060016005600086815260200190815260200160002060006101000a81548160ff021916908315150217905550505050505050505050565b600060026000805481526020019081526020016000206040518061014001604052908160008201548152602001600182018054600181600116156101000203166002900480601f0160208091040260200160405190810160405280929190818152602001828054600181600116156101000203166002900480156116c35780601f10611698576101008083540402835291602001916116c3565b820191906000526020600020905b8154815290600101906020018083116116a657829003601f168201915b50505050508152602001600282018054600181600116156101000203166002900480601f0160208091040260200160405190810160405280929190818152602001828054600181600116156101000203166002900480156117655780601f1061173a57610100808354040283529160200191611765565b820191906000526020600020905b81548152906001019060200180831161174857829003601f168201915b50505050508152602001600382018054600181600116156101000203166002900480601f0160208091040260200160405190810160405280929190818152602001828054600181600116156101000203166002900480156118075780601f106117dc57610100808354040283529160200191611807565b820191906000526020600020905b8154815290600101906020018083116117ea57829003601f168201915b50505050508152602001600482018054600181600116156101000203166002900480601f0160208091040260200160405190810160405280929190818152602001828054600181600116156101000203166002900480156118a95780601f1061187e576101008083540402835291602001916118a9565b820191906000526020600020905b81548152906001019060200180831161188c57829003601f168201915b5050505050815260200160058201548152602001600682018054600181600116156101000203166002900480601f0160208091040260200160405190810160405280929190818152602001828054600181600116156101000203166002900480156119555780601f1061192a57610100808354040283529160200191611955565b820191906000526020600020905b81548152906001019060200180831161193857829003601f168201915b505050505081526020016007820154815260200160088201548152602001600982018054600181600116156101000203166002900480601f016020809104026020016040519081016040528092919081815260200182805460018160011615610100020316600290048015611a0b5780601f106119e057610100808354040283529160200191611a0b565b820191906000526020600020905b8154815290600101906020018083116119ee57829003601f168201915b5050505050815250509050818160200181905250806002600080548152602001908152602001600020600082015181600001556020820151816001019080519060200190611a5a929190611c44565b506040820151816002019080519060200190611a77929190611c44565b506060820151816003019080519060200190611a94929190611c44565b506080820151816004019080519060200190611ab1929190611c44565b5060a0820151816005015560c0820151816006019080519060200190611ad8929190611c44565b5060e082015181600701556101008201518160080155610120820151816009019080519060200190611b0b929190611c44565b5090505080600383604051611b209190612492565b9081526020016040518091039020600082015181600001556020820151816001019080519060200190611b54929190611c44565b506040820151816002019080519060200190611b71929190611c44565b506060820151816003019080519060200190611b8e929190611c44565b506080820151816004019080519060200190611bab929190611c44565b5060a0820151816005015560c0820151816006019080519060200190611bd2929190611c44565b5060e082015181600701556101008201518160080155610120820151816009019080519060200190611c05929190611c44565b509050506001600483604051611c1b9190612492565b908152602001604051809103902060006101000a81548160ff0219169083151502179055505050565b828054600181600116156101000203166002900490600052602060002090601f016020900481019282611c7a5760008555611cc1565b82601f10611c9357805160ff1916838001178555611cc1565b82800160010185558215611cc1579182015b82811115611cc0578251825591602001919060010190611ca5565b5b509050611cce9190611d25565b5090565b604051806101400160405280600081526020016060815260200160608152602001606081526020016060815260200160008152602001606081526020016000815260200160008152602001606081525090565b5b80821115611d3e576000816000905550600101611d26565b5090565b6000611d55611d5084612667565b612636565b9050808382526020820190508260005b85811015611d955781358501611d7b8882611e46565b845260208401935060208301925050600181019050611d65565b5050509392505050565b6000611db2611dad84612693565b612636565b905082815260208101848484011115611dca57600080fd5b611dd5848285612769565b509392505050565b600082601f830112611dee57600080fd5b8135611dfe848260208601611d42565b91505092915050565b600081359050611e16816127be565b92915050565b600082601f830112611e2d57600080fd5b8135611e3d848260208601611d9f565b91505092915050565b60006101408284031215611e5957600080fd5b611e64610140612636565b90506000611e7484828501611fc8565b600083015250602082013567ffffffffffffffff811115611e9457600080fd5b611ea084828501611e1c565b602083015250604082013567ffffffffffffffff811115611ec057600080fd5b611ecc84828501611e1c565b604083015250606082013567ffffffffffffffff811115611eec57600080fd5b611ef884828501611e1c565b606083015250608082013567ffffffffffffffff811115611f1857600080fd5b611f2484828501611e1c565b60808301525060a0611f3884828501611fc8565b60a08301525060c082013567ffffffffffffffff811115611f5857600080fd5b611f6484828501611e1c565b60c08301525060e0611f7884828501611fc8565b60e083015250610100611f8d84828501611fc8565b6101008301525061012082013567ffffffffffffffff811115611faf57600080fd5b611fbb84828501611e1c565b6101208301525092915050565b600081359050611fd7816127d5565b92915050565b600081359050611fec816127ec565b92915050565b60006020828403121561200457600080fd5b600082013567ffffffffffffffff81111561201e57600080fd5b61202a84828501611ddd565b91505092915050565b60006020828403121561204557600080fd5b600061205384828501611e07565b91505092915050565b60006020828403121561206e57600080fd5b600082013567ffffffffffffffff81111561208857600080fd5b61209484828501611e1c565b91505092915050565b600080600080600080600080610100898b0312156120ba57600080fd5b600089013567ffffffffffffffff8111156120d457600080fd5b6120e08b828c01611e1c565b985050602089013567ffffffffffffffff8111156120fd57600080fd5b6121098b828c01611e1c565b975050604089013567ffffffffffffffff81111561212657600080fd5b6121328b828c01611e1c565b96505060606121438b828c01611fc8565b955050608089013567ffffffffffffffff81111561216057600080fd5b61216c8b828c01611e1c565b94505060a061217d8b828c01611fc8565b93505060c061218e8b828c01611fc8565b92505060e089013567ffffffffffffffff8111156121ab57600080fd5b6121b78b828c01611e1c565b9150509295985092959890939650565b6000602082840312156121d957600080fd5b60006121e784828501611fc8565b91505092915050565b60006020828403121561220257600080fd5b600061221084828501611fdd565b91505092915050565b61222281612710565b82525050565b6122318161271c565b82525050565b61224081612748565b82525050565b6000612251826126d8565b61225b81856126e3565b935061226b818560208601612778565b612274816127ad565b840191505092915050565b600061228a826126d8565b61229481856126f4565b93506122a4818560208601612778565b6122ad816127ad565b840191505092915050565b60006122c3826126d8565b6122cd8185612705565b93506122dd818560208601612778565b80840191505092915050565b600081546001811660008114612306576001811461232b5761236f565b607f60028304166123178187612705565b955060ff198316865280860193505061236f565b600282046123398187612705565b9550612344856126c3565b60005b8281101561236657815481890152600182019150602081019050612347565b82880195505050505b505092915050565b6000610140830160008301516123906000860182612474565b50602083015184820360208601526123a88282612246565b915050604083015184820360408601526123c28282612246565b915050606083015184820360608601526123dc8282612246565b915050608083015184820360808601526123f68282612246565b91505060a083015161240b60a0860182612474565b5060c083015184820360c08601526124238282612246565b91505060e083015161243860e0860182612474565b5061010083015161244d610100860182612474565b506101208301518482036101208601526124678282612246565b9150508091505092915050565b61247d81612752565b82525050565b61248c81612752565b82525050565b600061249e82846122b8565b915081905092915050565b60006124b582846122e9565b915081905092915050565b60006020820190506124d56000830184612219565b92915050565b60006020820190506124f06000830184612228565b92915050565b600060208201905061250b6000830184612237565b92915050565b6000602082019050818103600083015261252b818461227f565b905092915050565b6000602082019050818103600083015261254d8184612377565b905092915050565b600060208201905061256a6000830184612483565b92915050565b600061014082019050612586600083018d612483565b8181036020830152612598818c61227f565b905081810360408301526125ac818b61227f565b905081810360608301526125c0818a61227f565b905081810360808301526125d4818961227f565b90506125e360a0830188612483565b81810360c08301526125f5818761227f565b905061260460e0830186612483565b612612610100830185612483565b818103610120830152612625818461227f565b90509b9a5050505050505050505050565b6000604051905081810181811067ffffffffffffffff8211171561265d5761265c6127ab565b5b8060405250919050565b600067ffffffffffffffff821115612682576126816127ab565b5b602082029050602081019050919050565b600067ffffffffffffffff8211156126ae576126ad6127ab565b5b601f19601f8301169050602081019050919050565b60008190508160005260206000209050919050565b600081519050919050565b600082825260208201905092915050565b600082825260208201905092915050565b600081905092915050565b60008115159050919050565b60007fff0000000000000000000000000000000000000000000000000000000000000082169050919050565b6000819050919050565b6000819050919050565b600060ff82169050919050565b82818337600083830152505050565b60005b8381101561279657808201518184015260208101905061277b565b838111156127a5576000848401525b50505050565bfe5b6000601f19601f8301169050919050565b6127c781612748565b81146127d257600080fd5b50565b6127de81612752565b81146127e957600080fd5b50565b6127f58161275c565b811461280057600080fd5b5056fea2646970667358221220817472718fabb2d3ec3a00437a71b95e373e6111a64b0e5c9e77f8b3c6feb14364736f6c63430007060033",
  "immutableReferences": {},
  "source": "// SPDX-License-Identifier: MIT\r\npragma solidity >=0.4.21 <0.8.0;\r\npragma abicoder v2;\r\n\r\n// NFT smart contract inherits ERC721 interface\r\ncontract Ecertify {\r\n    // total number of NFT minted\r\n    uint256 public certificateCounter;\r\n    string convertedHash;\r\n\r\n    struct Certificate {\r\n        uint256 certid;\r\n        string transactionHash;\r\n        string name;\r\n        string course;\r\n        string email;\r\n        uint256 passoutYear;\r\n        string percentage;\r\n        uint256 SAP;\r\n        uint256 contact;\r\n        string issueDate;\r\n    }\r\n\r\n    // map Certificates's id to Certificate\r\n    mapping(uint256 => Certificate) public allCertificates;\r\n\r\n    // map Certificates's hash to Certificate\r\n    mapping(string => Certificate) public allhashedCertificates;\r\n\r\n    mapping(string => bool) public certficateHashExist;\r\n\r\n    mapping(uint256 => bool) public sapIdExist;\r\n\r\n    function addCertificate(\r\n        string memory _name,\r\n        string memory _course,\r\n        string memory _email,\r\n        uint256 _passoutYear,\r\n        string memory _percentage,\r\n        uint256 _SAP,\r\n        uint256 _phone,\r\n        string memory _issueDate\r\n    ) external {\r\n        certificateCounter++;\r\n        // require(!_exists(certificateCounter));\r\n\r\n        // create a new Certificate (struct) and pass in new values\r\n        Certificate memory newCert = Certificate(\r\n            certificateCounter,\r\n            \"0x0\",\r\n            _name,\r\n            _course,\r\n            _email,\r\n            _passoutYear,\r\n            _percentage,\r\n            _SAP,\r\n            _phone,\r\n            _issueDate\r\n        );\r\n        // add the id and it's certificate to allCertificate mapping\r\n        allCertificates[certificateCounter] = newCert;\r\n\r\n        sapIdExist[_SAP] = true;\r\n    }\r\n\r\n    function updateTransaction(string memory _transactionHash) external {\r\n        Certificate memory cert = allCertificates[certificateCounter];\r\n        cert.transactionHash = _transactionHash;\r\n        allCertificates[certificateCounter] = cert;\r\n        // add the hash value and it's certificate to allCertificate mapping\r\n        allhashedCertificates[_transactionHash] = cert;\r\n        certficateHashExist[_transactionHash] = true;\r\n    }\r\n\r\n    function getValueAtMapping(string memory userAddress)\r\n        public\r\n        view\r\n        returns (Certificate memory)\r\n    {\r\n        return allhashedCertificates[userAddress];\r\n    }\r\n\r\n    function bytes32ToString(bytes32 _bytes32)\r\n        public\r\n        pure\r\n        returns (string memory)\r\n    {\r\n        uint8 i = 0;\r\n        bytes memory bytesArray = new bytes(64);\r\n        for (i = 0; i < bytesArray.length; i++) {\r\n            uint8 _f = uint8(_bytes32[i / 2] & 0x0f);\r\n            uint8 _l = uint8(_bytes32[i / 2] >> 4);\r\n\r\n            bytesArray[i] = toByte(_f);\r\n            i = i + 1;\r\n            bytesArray[i] = toByte(_l);\r\n        }\r\n        return string(bytesArray);\r\n    }\r\n\r\n    function toByte(uint8 _uint8) public pure returns (bytes1) {\r\n        if (_uint8 < 10) {\r\n            return bytes1(_uint8 + 48);\r\n        } else {\r\n            return bytes1(_uint8 + 87);\r\n        }\r\n    }\r\n\r\n    function hash(string memory _string) public pure returns (bytes32) {\r\n        return keccak256(abi.encodePacked(_string));\r\n    }\r\n\r\n    function addInBulk(Certificate[] memory b) external {\r\n        for (uint256 index = 0; index < b.length; index++) {\r\n            certificateCounter++;\r\n            // require(!_exists(certificateCounter));\r\n            bytes32 unique = hash(b[index].name);\r\n            convertedHash = bytes32ToString(unique);\r\n            // create a new Certificate (struct) and pass in new values\r\n            Certificate memory newCert = Certificate(\r\n                certificateCounter,\r\n                convertedHash,\r\n                b[index].name,\r\n                b[index].course,\r\n                b[index].email,\r\n                b[index].passoutYear,\r\n                b[index].percentage,\r\n                b[index].SAP,\r\n                b[index].contact,\r\n                b[index].issueDate\r\n            );\r\n            // add the id and it's certificate to allCertificate mapping\r\n            allCertificates[certificateCounter] = newCert;\r\n            certficateHashExist[convertedHash] = true;\r\n        }\r\n        //  allCertificatesInBulk[certificateCounter2] = b;\r\n    }\r\n}\r\n",
  "sourcePath": "C:\\Users\\Jhenil\\Development\\Blockchain Projects\\E-certo-1\\src\\contracts\\Ecertify.sol",
  "compiler": {
    "name": "solc",
    "version": "0.7.6+commit.7338295f.Emscripten.clang"
  },
  "schemaVersion": "3.4.4",
  "updatedAt": "2022-09-08T10:33:08.001Z",
  "networkType": "ethereum",
  "devdoc": {
    "kind": "dev",
    "methods": {},
    "version": 1
  },
  "userdoc": {
    "kind": "user",
    "methods": {},
    "version": 1
  }
}