{
  "contractName": "Ecertify",
  "abi": [
    {
      "inputs": [
        {
          "internalType": "uint256",
          "name": "",
          "type": "uint256"
        }
      ],
      "name": "allCertificates",
      "outputs": [
        {
          "internalType": "uint256",
          "name": "certid",
          "type": "uint256"
        },
        {
          "internalType": "string",
          "name": "certURI",
          "type": "string"
        }
      ],
      "stateMutability": "view",
      "type": "function",
      "constant": true
    },
    {
      "inputs": [],
      "name": "certificateCounter",
      "outputs": [
        {
          "internalType": "uint256",
          "name": "",
          "type": "uint256"
        }
      ],
      "stateMutability": "view",
      "type": "function",
      "constant": true
    },
    {
      "inputs": [
        {
          "internalType": "string",
          "name": "certURI",
          "type": "string"
        }
      ],
      "name": "addCertificate",
      "outputs": [],
      "stateMutability": "nonpayable",
      "type": "function"
    }
  ],
  "bytecode": "0x608060405234801561001057600080fd5b50610530806100206000396000f3fe608060405234801561001057600080fd5b50600436106100415760003560e01c8063053c8e25146100465780630a99e4f81461007757806367764b2614610093575b600080fd5b610060600480360381019061005b919061034b565b6100b1565b60405161006e9291906103d7565b60405180910390f35b610091600480360381019061008c919061030a565b61016d565b005b61009b6101dc565b6040516100a891906103bc565b60405180910390f35b6001602052806000526040600020600091509050806000015490806001018054600181600116156101000203166002900480601f0160208091040260200160405190810160405280929190818152602001828054600181600116156101000203166002900480156101635780601f1061013857610100808354040283529160200191610163565b820191906000526020600020905b81548152906001019060200180831161014657829003601f168201915b5050505050905082565b60008081548092919060010191905055506000604051806040016040528060005481526020018381525090508060016000805481526020019081526020016000206000820151816000015560208201518160010190805190602001906101d49291906101e2565b509050505050565b60005481565b828054600181600116156101000203166002900490600052602060002090601f016020900481019282610218576000855561025f565b82601f1061023157805160ff191683800117855561025f565b8280016001018555821561025f579182015b8281111561025e578251825591602001919060010190610243565b5b50905061026c9190610270565b5090565b5b80821115610289576000816000905550600101610271565b5090565b60006102a061029b84610438565b610407565b9050828152602081018484840111156102b857600080fd5b6102c384828561048e565b509392505050565b600082601f8301126102dc57600080fd5b81356102ec84826020860161028d565b91505092915050565b600081359050610304816104e3565b92915050565b60006020828403121561031c57600080fd5b600082013567ffffffffffffffff81111561033657600080fd5b610342848285016102cb565b91505092915050565b60006020828403121561035d57600080fd5b600061036b848285016102f5565b91505092915050565b600061037f82610468565b6103898185610473565b935061039981856020860161049d565b6103a2816104d2565b840191505092915050565b6103b681610484565b82525050565b60006020820190506103d160008301846103ad565b92915050565b60006040820190506103ec60008301856103ad565b81810360208301526103fe8184610374565b90509392505050565b6000604051905081810181811067ffffffffffffffff8211171561042e5761042d6104d0565b5b8060405250919050565b600067ffffffffffffffff821115610453576104526104d0565b5b601f19601f8301169050602081019050919050565b600081519050919050565b600082825260208201905092915050565b6000819050919050565b82818337600083830152505050565b60005b838110156104bb5780820151818401526020810190506104a0565b838111156104ca576000848401525b50505050565bfe5b6000601f19601f8301169050919050565b6104ec81610484565b81146104f757600080fd5b5056fea26469706673582212206503672985b00bfbc9f1d40ed2fb9133e7a2367ba01f622c08b886eee1ace00364736f6c63430007060033",
  "immutableReferences": {},
  "source": "// SPDX-License-Identifier: MIT\r\npragma solidity >=0.4.21 <0.8.0;\r\npragma abicoder v2;\r\n\r\n\r\n// NFT smart contract inherits ERC721 interface\r\ncontract Ecertify{\r\n\r\n // total number of NFT minted\r\n  uint256 public certificateCounter;\r\n\r\nstruct Certificate {\r\n    uint256 certid;\r\n    string certURI;\r\n  }\r\n  \r\n// map Certificates's id to Certificate\r\nmapping(uint256 => Certificate) public allCertificates;  \r\n\r\nfunction addCertificate(string memory certURI)external {\r\n  certificateCounter ++;\r\n  // require(!_exists(certificateCounter));\r\n\r\n  // create a new Certificate (struct) and pass in new values\r\n    Certificate memory newCert = Certificate(\r\n      certificateCounter,\r\n      certURI\r\n    );\r\n   // add the id and it's certificate to allCertificate mapping\r\n    allCertificates[certificateCounter] = newCert;\r\n}\r\n}\r\n",
  "sourcePath": "C:\\Users\\Jhenil\\Development\\Blockchain Projects\\E-certo\\src\\contracts\\Ecertify.sol",
  "compiler": {
    "name": "solc",
    "version": "0.7.6+commit.7338295f.Emscripten.clang"
  },
  "schemaVersion": "3.4.4",
  "updatedAt": "2022-07-26T14:31:00.779Z",
  "networkType": "ethereum",
  "devdoc": {
    "kind": "dev",
    "methods": {},
    "version": 1
  },
  "userdoc": {
    "kind": "user",
    "methods": {},
    "version": 1
  }
}