{
  "contractName": "Ecertify",
  "abi": [
    {
      "inputs": [
        {
          "internalType": "uint256",
          "name": "",
          "type": "uint256"
        }
      ],
      "name": "allCertificates",
      "outputs": [
        {
          "internalType": "uint256",
          "name": "certid",
          "type": "uint256"
        },
        {
          "internalType": "string",
          "name": "transactionHash",
          "type": "string"
        },
        {
          "internalType": "string",
          "name": "name",
          "type": "string"
        },
        {
          "internalType": "string",
          "name": "course",
          "type": "string"
        },
        {
          "internalType": "string",
          "name": "email",
          "type": "string"
        },
        {
          "internalType": "uint256",
          "name": "passoutYear",
          "type": "uint256"
        },
        {
          "internalType": "string",
          "name": "percentage",
          "type": "string"
        },
        {
          "internalType": "uint256",
          "name": "SAP",
          "type": "uint256"
        },
        {
          "internalType": "uint256",
          "name": "contact",
          "type": "uint256"
        },
        {
          "internalType": "string",
          "name": "issueDate",
          "type": "string"
        }
      ],
      "stateMutability": "view",
      "type": "function",
      "constant": true
    },
    {
      "inputs": [
        {
          "internalType": "uint256",
          "name": "",
          "type": "uint256"
        }
      ],
      "name": "allEventCertificates",
      "outputs": [
        {
          "internalType": "uint256",
          "name": "certid",
          "type": "uint256"
        },
        {
          "internalType": "string",
          "name": "transactionHash",
          "type": "string"
        },
        {
          "internalType": "string",
          "name": "name",
          "type": "string"
        },
        {
          "internalType": "string",
          "name": "email",
          "type": "string"
        },
        {
          "internalType": "string",
          "name": "domain",
          "type": "string"
        },
        {
          "internalType": "uint256",
          "name": "contact",
          "type": "uint256"
        },
        {
          "internalType": "string",
          "name": "eventName",
          "type": "string"
        },
        {
          "internalType": "string",
          "name": "eventType",
          "type": "string"
        },
        {
          "internalType": "string",
          "name": "eventDate",
          "type": "string"
        },
        {
          "internalType": "string",
          "name": "issueDate",
          "type": "string"
        }
      ],
      "stateMutability": "view",
      "type": "function",
      "constant": true
    },
    {
      "inputs": [
        {
          "internalType": "string",
          "name": "",
          "type": "string"
        }
      ],
      "name": "allhashedCertificates",
      "outputs": [
        {
          "internalType": "uint256",
          "name": "certid",
          "type": "uint256"
        },
        {
          "internalType": "string",
          "name": "transactionHash",
          "type": "string"
        },
        {
          "internalType": "string",
          "name": "name",
          "type": "string"
        },
        {
          "internalType": "string",
          "name": "course",
          "type": "string"
        },
        {
          "internalType": "string",
          "name": "email",
          "type": "string"
        },
        {
          "internalType": "uint256",
          "name": "passoutYear",
          "type": "uint256"
        },
        {
          "internalType": "string",
          "name": "percentage",
          "type": "string"
        },
        {
          "internalType": "uint256",
          "name": "SAP",
          "type": "uint256"
        },
        {
          "internalType": "uint256",
          "name": "contact",
          "type": "uint256"
        },
        {
          "internalType": "string",
          "name": "issueDate",
          "type": "string"
        }
      ],
      "stateMutability": "view",
      "type": "function",
      "constant": true
    },
    {
      "inputs": [
        {
          "internalType": "string",
          "name": "",
          "type": "string"
        }
      ],
      "name": "allhashedEventCertificates",
      "outputs": [
        {
          "internalType": "uint256",
          "name": "certid",
          "type": "uint256"
        },
        {
          "internalType": "string",
          "name": "transactionHash",
          "type": "string"
        },
        {
          "internalType": "string",
          "name": "name",
          "type": "string"
        },
        {
          "internalType": "string",
          "name": "email",
          "type": "string"
        },
        {
          "internalType": "string",
          "name": "domain",
          "type": "string"
        },
        {
          "internalType": "uint256",
          "name": "contact",
          "type": "uint256"
        },
        {
          "internalType": "string",
          "name": "eventName",
          "type": "string"
        },
        {
          "internalType": "string",
          "name": "eventType",
          "type": "string"
        },
        {
          "internalType": "string",
          "name": "eventDate",
          "type": "string"
        },
        {
          "internalType": "string",
          "name": "issueDate",
          "type": "string"
        }
      ],
      "stateMutability": "view",
      "type": "function",
      "constant": true
    },
    {
      "inputs": [
        {
          "internalType": "string",
          "name": "",
          "type": "string"
        }
      ],
      "name": "certficateHashExist",
      "outputs": [
        {
          "internalType": "bool",
          "name": "",
          "type": "bool"
        }
      ],
      "stateMutability": "view",
      "type": "function",
      "constant": true
    },
    {
      "inputs": [],
      "name": "certificateCounter",
      "outputs": [
        {
          "internalType": "uint256",
          "name": "",
          "type": "uint256"
        }
      ],
      "stateMutability": "view",
      "type": "function",
      "constant": true
    },
    {
      "inputs": [],
      "name": "eventCertificateCounter",
      "outputs": [
        {
          "internalType": "uint256",
          "name": "",
          "type": "uint256"
        }
      ],
      "stateMutability": "view",
      "type": "function",
      "constant": true
    },
    {
      "inputs": [
        {
          "internalType": "uint256",
          "name": "",
          "type": "uint256"
        }
      ],
      "name": "sapIdExist",
      "outputs": [
        {
          "internalType": "bool",
          "name": "",
          "type": "bool"
        }
      ],
      "stateMutability": "view",
      "type": "function",
      "constant": true
    },
    {
      "inputs": [
        {
          "internalType": "string",
          "name": "_name",
          "type": "string"
        },
        {
          "internalType": "string",
          "name": "_course",
          "type": "string"
        },
        {
          "internalType": "string",
          "name": "_email",
          "type": "string"
        },
        {
          "internalType": "uint256",
          "name": "_passoutYear",
          "type": "uint256"
        },
        {
          "internalType": "string",
          "name": "_percentage",
          "type": "string"
        },
        {
          "internalType": "uint256",
          "name": "_SAP",
          "type": "uint256"
        },
        {
          "internalType": "uint256",
          "name": "_phone",
          "type": "uint256"
        },
        {
          "internalType": "string",
          "name": "_issueDate",
          "type": "string"
        }
      ],
      "name": "addCertificate",
      "outputs": [],
      "stateMutability": "nonpayable",
      "type": "function"
    },
    {
      "inputs": [
        {
          "internalType": "string",
          "name": "_transactionHash",
          "type": "string"
        }
      ],
      "name": "updateTransaction",
      "outputs": [],
      "stateMutability": "nonpayable",
      "type": "function"
    },
    {
      "inputs": [
        {
          "internalType": "string",
          "name": "userAddress",
          "type": "string"
        }
      ],
      "name": "getValueAtMapping",
      "outputs": [
        {
          "components": [
            {
              "internalType": "uint256",
              "name": "certid",
              "type": "uint256"
            },
            {
              "internalType": "string",
              "name": "transactionHash",
              "type": "string"
            },
            {
              "internalType": "string",
              "name": "name",
              "type": "string"
            },
            {
              "internalType": "string",
              "name": "course",
              "type": "string"
            },
            {
              "internalType": "string",
              "name": "email",
              "type": "string"
            },
            {
              "internalType": "uint256",
              "name": "passoutYear",
              "type": "uint256"
            },
            {
              "internalType": "string",
              "name": "percentage",
              "type": "string"
            },
            {
              "internalType": "uint256",
              "name": "SAP",
              "type": "uint256"
            },
            {
              "internalType": "uint256",
              "name": "contact",
              "type": "uint256"
            },
            {
              "internalType": "string",
              "name": "issueDate",
              "type": "string"
            }
          ],
          "internalType": "struct Ecertify.Certificate",
          "name": "",
          "type": "tuple"
        }
      ],
      "stateMutability": "view",
      "type": "function",
      "constant": true
    },
    {
      "inputs": [
        {
          "internalType": "bytes32",
          "name": "_bytes32",
          "type": "bytes32"
        }
      ],
      "name": "bytes32ToString",
      "outputs": [
        {
          "internalType": "string",
          "name": "",
          "type": "string"
        }
      ],
      "stateMutability": "pure",
      "type": "function",
      "constant": true
    },
    {
      "inputs": [
        {
          "internalType": "uint8",
          "name": "_uint8",
          "type": "uint8"
        }
      ],
      "name": "toByte",
      "outputs": [
        {
          "internalType": "bytes1",
          "name": "",
          "type": "bytes1"
        }
      ],
      "stateMutability": "pure",
      "type": "function",
      "constant": true
    },
    {
      "inputs": [
        {
          "internalType": "string",
          "name": "_string",
          "type": "string"
        },
        {
          "internalType": "uint256",
          "name": "_contact",
          "type": "uint256"
        }
      ],
      "name": "hash",
      "outputs": [
        {
          "internalType": "bytes32",
          "name": "",
          "type": "bytes32"
        }
      ],
      "stateMutability": "pure",
      "type": "function",
      "constant": true
    },
    {
      "inputs": [
        {
          "components": [
            {
              "internalType": "uint256",
              "name": "certid",
              "type": "uint256"
            },
            {
              "internalType": "string",
              "name": "transactionHash",
              "type": "string"
            },
            {
              "internalType": "string",
              "name": "name",
              "type": "string"
            },
            {
              "internalType": "string",
              "name": "course",
              "type": "string"
            },
            {
              "internalType": "string",
              "name": "email",
              "type": "string"
            },
            {
              "internalType": "uint256",
              "name": "passoutYear",
              "type": "uint256"
            },
            {
              "internalType": "string",
              "name": "percentage",
              "type": "string"
            },
            {
              "internalType": "uint256",
              "name": "SAP",
              "type": "uint256"
            },
            {
              "internalType": "uint256",
              "name": "contact",
              "type": "uint256"
            },
            {
              "internalType": "string",
              "name": "issueDate",
              "type": "string"
            }
          ],
          "internalType": "struct Ecertify.Certificate[]",
          "name": "b",
          "type": "tuple[]"
        }
      ],
      "name": "addInBulk",
      "outputs": [],
      "stateMutability": "nonpayable",
      "type": "function"
    },
    {
      "inputs": [
        {
          "components": [
            {
              "internalType": "uint256",
              "name": "certid",
              "type": "uint256"
            },
            {
              "internalType": "string",
              "name": "transactionHash",
              "type": "string"
            },
            {
              "internalType": "string",
              "name": "name",
              "type": "string"
            },
            {
              "internalType": "string",
              "name": "email",
              "type": "string"
            },
            {
              "internalType": "string",
              "name": "domain",
              "type": "string"
            },
            {
              "internalType": "uint256",
              "name": "contact",
              "type": "uint256"
            },
            {
              "internalType": "string",
              "name": "eventName",
              "type": "string"
            },
            {
              "internalType": "string",
              "name": "eventType",
              "type": "string"
            },
            {
              "internalType": "string",
              "name": "eventDate",
              "type": "string"
            },
            {
              "internalType": "string",
              "name": "issueDate",
              "type": "string"
            }
          ],
          "internalType": "struct Ecertify.EventCertificate[]",
          "name": "b",
          "type": "tuple[]"
        }
      ],
      "name": "addEventInBulk",
      "outputs": [],
      "stateMutability": "nonpayable",
      "type": "function"
    }
  ],
  "bytecode": "0x608060405234801561001057600080fd5b50613b23806100206000396000f3fe608060405234801561001057600080fd5b50600436106101005760003560e01c8063c65c94c711610097578063dfcaf60d11610066578063dfcaf60d14610326578063e9a80da71461035f578063f31125cf1461037b578063fbfb8ce21461039757610100565b8063c65c94c71461028e578063d3a3f082146102aa578063da4039df146102da578063dbdd28cf146102f657610100565b806367764b26116100d357806367764b26146101e05780639201de55146101fe578063a86b73f01461022e578063be25270f1461025e57610100565b8063053c8e251461010557806312e253301461013e5780631e830c3f1461016e57806329ee2559146101a7575b600080fd5b61011f600480360381019061011a9190613368565b6103b5565b6040516101359a99989796959493929190613824565b60405180910390f35b61015860048036038101906101539190613368565b610799565b60405161016591906136a0565b60405180910390f35b610188600480360381019061018391906131a9565b6107b9565b60405161019e9a99989796959493929190613824565b60405180910390f35b6101c160048036038101906101bc9190613368565b610bb3565b6040516101d79a99989796959493929190613750565b60405180910390f35b6101e86110c7565b6040516101f59190613735565b60405180910390f35b61021860048036038101906102139190613180565b6110cd565b60405161022591906136f1565b60405180910390f35b61024860048036038101906102439190613391565b611258565b60405161025591906136bb565b60405180910390f35b61027860048036038101906102739190613314565b611283565b60405161028591906136d6565b60405180910390f35b6102a860048036038101906102a3919061313f565b6112b6565b005b6102c460048036038101906102bf91906131a9565b611631565b6040516102d191906136a0565b60405180910390f35b6102f460048036038101906102ef91906130fe565b611667565b005b610310600480360381019061030b91906131a9565b6119bb565b60405161031d9190613713565b60405180910390f35b610340600480360381019061033b91906131a9565b611de8565b6040516103569a99989796959493929190613750565b60405180910390f35b610379600480360381019061037491906131ea565b612312565b005b610395600480360381019061039091906131a9565b6124cb565b005b61039f612b11565b6040516103ac9190613735565b60405180910390f35b6003602052806000526040600020600091509050806000015490806001018054600181600116156101000203166002900480601f0160208091040260200160405190810160405280929190818152602001828054600181600116156101000203166002900480156104675780601f1061043c57610100808354040283529160200191610467565b820191906000526020600020905b81548152906001019060200180831161044a57829003601f168201915b505050505090806002018054600181600116156101000203166002900480601f0160208091040260200160405190810160405280929190818152602001828054600181600116156101000203166002900480156105055780601f106104da57610100808354040283529160200191610505565b820191906000526020600020905b8154815290600101906020018083116104e857829003601f168201915b505050505090806003018054600181600116156101000203166002900480601f0160208091040260200160405190810160405280929190818152602001828054600181600116156101000203166002900480156105a35780601f10610578576101008083540402835291602001916105a3565b820191906000526020600020905b81548152906001019060200180831161058657829003601f168201915b505050505090806004018054600181600116156101000203166002900480601f0160208091040260200160405190810160405280929190818152602001828054600181600116156101000203166002900480156106415780601f1061061657610100808354040283529160200191610641565b820191906000526020600020905b81548152906001019060200180831161062457829003601f168201915b505050505090806005015490806006018054600181600116156101000203166002900480601f0160208091040260200160405190810160405280929190818152602001828054600181600116156101000203166002900480156106e55780601f106106ba576101008083540402835291602001916106e5565b820191906000526020600020905b8154815290600101906020018083116106c857829003601f168201915b505050505090806007015490806008015490806009018054600181600116156101000203166002900480601f01602080910402602001604051908101604052809291908181526020018280546001816001161561010002031660029004801561078f5780601f106107645761010080835404028352916020019161078f565b820191906000526020600020905b81548152906001019060200180831161077257829003601f168201915b505050505090508a565b60086020528060005260406000206000915054906101000a900460ff1681565b600581805160208101820180518482526020830160208501208183528095505050505050600091509050806000015490806001018054600181600116156101000203166002900480601f0160208091040260200160405190810160405280929190818152602001828054600181600116156101000203166002900480156108815780601f1061085657610100808354040283529160200191610881565b820191906000526020600020905b81548152906001019060200180831161086457829003601f168201915b505050505090806002018054600181600116156101000203166002900480601f01602080910402602001604051908101604052809291908181526020018280546001816001161561010002031660029004801561091f5780601f106108f45761010080835404028352916020019161091f565b820191906000526020600020905b81548152906001019060200180831161090257829003601f168201915b505050505090806003018054600181600116156101000203166002900480601f0160208091040260200160405190810160405280929190818152602001828054600181600116156101000203166002900480156109bd5780601f10610992576101008083540402835291602001916109bd565b820191906000526020600020905b8154815290600101906020018083116109a057829003601f168201915b505050505090806004018054600181600116156101000203166002900480601f016020809104026020016040519081016040528092919081815260200182805460018160011615610100020316600290048015610a5b5780601f10610a3057610100808354040283529160200191610a5b565b820191906000526020600020905b815481529060010190602001808311610a3e57829003601f168201915b505050505090806005015490806006018054600181600116156101000203166002900480601f016020809104026020016040519081016040528092919081815260200182805460018160011615610100020316600290048015610aff5780601f10610ad457610100808354040283529160200191610aff565b820191906000526020600020905b815481529060010190602001808311610ae257829003601f168201915b505050505090806007015490806008015490806009018054600181600116156101000203166002900480601f016020809104026020016040519081016040528092919081815260200182805460018160011615610100020316600290048015610ba95780601f10610b7e57610100808354040283529160200191610ba9565b820191906000526020600020905b815481529060010190602001808311610b8c57829003601f168201915b505050505090508a565b6004602052806000526040600020600091509050806000015490806001018054600181600116156101000203166002900480601f016020809104026020016040519081016040528092919081815260200182805460018160011615610100020316600290048015610c655780601f10610c3a57610100808354040283529160200191610c65565b820191906000526020600020905b815481529060010190602001808311610c4857829003601f168201915b505050505090806002018054600181600116156101000203166002900480601f016020809104026020016040519081016040528092919081815260200182805460018160011615610100020316600290048015610d035780601f10610cd857610100808354040283529160200191610d03565b820191906000526020600020905b815481529060010190602001808311610ce657829003601f168201915b505050505090806003018054600181600116156101000203166002900480601f016020809104026020016040519081016040528092919081815260200182805460018160011615610100020316600290048015610da15780601f10610d7657610100808354040283529160200191610da1565b820191906000526020600020905b815481529060010190602001808311610d8457829003601f168201915b505050505090806004018054600181600116156101000203166002900480601f016020809104026020016040519081016040528092919081815260200182805460018160011615610100020316600290048015610e3f5780601f10610e1457610100808354040283529160200191610e3f565b820191906000526020600020905b815481529060010190602001808311610e2257829003601f168201915b505050505090806005015490806006018054600181600116156101000203166002900480601f016020809104026020016040519081016040528092919081815260200182805460018160011615610100020316600290048015610ee35780601f10610eb857610100808354040283529160200191610ee3565b820191906000526020600020905b815481529060010190602001808311610ec657829003601f168201915b505050505090806007018054600181600116156101000203166002900480601f016020809104026020016040519081016040528092919081815260200182805460018160011615610100020316600290048015610f815780601f10610f5657610100808354040283529160200191610f81565b820191906000526020600020905b815481529060010190602001808311610f6457829003601f168201915b505050505090806008018054600181600116156101000203166002900480601f01602080910402602001604051908101604052809291908181526020018280546001816001161561010002031660029004801561101f5780601f10610ff45761010080835404028352916020019161101f565b820191906000526020600020905b81548152906001019060200180831161100257829003601f168201915b505050505090806009018054600181600116156101000203166002900480601f0160208091040260200160405190810160405280929190818152602001828054600181600116156101000203166002900480156110bd5780601f10611092576101008083540402835291602001916110bd565b820191906000526020600020905b8154815290600101906020018083116110a057829003601f168201915b505050505090508a565b60005481565b6060600080604067ffffffffffffffff811180156110ea57600080fd5b506040519080825280601f01601f19166020018201604052801561111d5781602001600182028036833780820191505090505b509050600091505b80518260ff16101561124e576000600f60f81b8560028560ff168161114657fe5b0460ff166020811061115457fe5b1a60f81b1660f81c9050600060048660028660ff168161117057fe5b0460ff166020811061117e57fe5b1a60f81b7effffffffffffffffffffffffffffffffffffffffffffffffffffffffffffff1916901c60f81c90506111b482611258565b838560ff16815181106111c357fe5b60200101907effffffffffffffffffffffffffffffffffffffffffffffffffffffffffffff1916908160001a90535060018401935061120181611258565b838560ff168151811061121057fe5b60200101907effffffffffffffffffffffffffffffffffffffffffffffffffffffffffffff1916908160001a90535050508180600101925050611125565b8092505050919050565b6000600a8260ff161015611274576030820160f81b905061127e565b6057820160f81b90505b919050565b60008282604051602001611298929190613661565b60405160208183030381529060405280519060200120905092915050565b60005b815181101561162d57600160008154809291906001019190505550600061130e8383815181106112e557fe5b6020026020010151604001518484815181106112fd57fe5b602002602001015160a00151611283565b9050611319816110cd565b6002908051906020019061132e929190612b17565b506000604051806101400160405280600154815260200160028054600181600116156101000203166002900480601f0160208091040260200160405190810160405280929190818152602001828054600181600116156101000203166002900480156113db5780601f106113b0576101008083540402835291602001916113db565b820191906000526020600020905b8154815290600101906020018083116113be57829003601f168201915b505050505081526020018585815181106113f157fe5b602002602001015160400151815260200185858151811061140e57fe5b602002602001015160600151815260200185858151811061142b57fe5b602002602001015160800151815260200185858151811061144857fe5b602002602001015160a00151815260200185858151811061146557fe5b602002602001015160c00151815260200185858151811061148257fe5b602002602001015160e00151815260200185858151811061149f57fe5b6020026020010151610100015181526020018585815181106114bd57fe5b6020026020010151610120015181525090508060046000600154815260200190815260200160002060008201518160000155602082015181600101908051906020019061150b929190612b17565b506040820151816002019080519060200190611528929190612b17565b506060820151816003019080519060200190611545929190612b17565b506080820151816004019080519060200190611562929190612b17565b5060a0820151816005015560c0820151816006019080519060200190611589929190612b17565b5060e08201518160070190805190602001906115a6929190612b17565b506101008201518160080190805190602001906115c4929190612b17565b506101208201518160090190805190602001906115e2929190612b17565b509050506001600760026040516115f99190613689565b908152602001604051809103902060006101000a81548160ff021916908315150217905550505080806001019150506112b9565b5050565b6007818051602081018201805184825260208301602085012081835280955050505050506000915054906101000a900460ff1681565b60005b81518110156119b757600080815480929190600101919050555060006116bf83838151811061169557fe5b6020026020010151604001518484815181106116ad57fe5b60200260200101516101000151611283565b90506116ca816110cd565b600290805190602001906116df929190612b17565b506000604051806101400160405280600054815260200160028054600181600116156101000203166002900480601f01602080910402602001604051908101604052809291908181526020018280546001816001161561010002031660029004801561178c5780601f106117615761010080835404028352916020019161178c565b820191906000526020600020905b81548152906001019060200180831161176f57829003601f168201915b505050505081526020018585815181106117a257fe5b60200260200101516040015181526020018585815181106117bf57fe5b60200260200101516060015181526020018585815181106117dc57fe5b60200260200101516080015181526020018585815181106117f957fe5b602002602001015160a00151815260200185858151811061181657fe5b602002602001015160c00151815260200185858151811061183357fe5b602002602001015160e00151815260200185858151811061185057fe5b60200260200101516101000151815260200185858151811061186e57fe5b6020026020010151610120015181525090508060036000805481526020019081526020016000206000820151816000015560208201518160010190805190602001906118bb929190612b17565b5060408201518160020190805190602001906118d8929190612b17565b5060608201518160030190805190602001906118f5929190612b17565b506080820151816004019080519060200190611912929190612b17565b5060a0820151816005015560c0820151816006019080519060200190611939929190612b17565b5060e08201518160070155610100820151816008015561012082015181600901908051906020019061196c929190612b17565b509050506001600760026040516119839190613689565b908152602001604051809103902060006101000a81548160ff0219169083151502179055505050808060010191505061166a565b5050565b6119c3612ba5565b6005826040516119d3919061364a565b90815260200160405180910390206040518061014001604052908160008201548152602001600182018054600181600116156101000203166002900480601f016020809104026020016040519081016040528092919081815260200182805460018160011615610100020316600290048015611a905780601f10611a6557610100808354040283529160200191611a90565b820191906000526020600020905b815481529060010190602001808311611a7357829003601f168201915b50505050508152602001600282018054600181600116156101000203166002900480601f016020809104026020016040519081016040528092919081815260200182805460018160011615610100020316600290048015611b325780601f10611b0757610100808354040283529160200191611b32565b820191906000526020600020905b815481529060010190602001808311611b1557829003601f168201915b50505050508152602001600382018054600181600116156101000203166002900480601f016020809104026020016040519081016040528092919081815260200182805460018160011615610100020316600290048015611bd45780601f10611ba957610100808354040283529160200191611bd4565b820191906000526020600020905b815481529060010190602001808311611bb757829003601f168201915b50505050508152602001600482018054600181600116156101000203166002900480601f016020809104026020016040519081016040528092919081815260200182805460018160011615610100020316600290048015611c765780601f10611c4b57610100808354040283529160200191611c76565b820191906000526020600020905b815481529060010190602001808311611c5957829003601f168201915b5050505050815260200160058201548152602001600682018054600181600116156101000203166002900480601f016020809104026020016040519081016040528092919081815260200182805460018160011615610100020316600290048015611d225780601f10611cf757610100808354040283529160200191611d22565b820191906000526020600020905b815481529060010190602001808311611d0557829003601f168201915b505050505081526020016007820154815260200160088201548152602001600982018054600181600116156101000203166002900480601f016020809104026020016040519081016040528092919081815260200182805460018160011615610100020316600290048015611dd85780601f10611dad57610100808354040283529160200191611dd8565b820191906000526020600020905b815481529060010190602001808311611dbb57829003601f168201915b5050505050815250509050919050565b600681805160208101820180518482526020830160208501208183528095505050505050600091509050806000015490806001018054600181600116156101000203166002900480601f016020809104026020016040519081016040528092919081815260200182805460018160011615610100020316600290048015611eb05780601f10611e8557610100808354040283529160200191611eb0565b820191906000526020600020905b815481529060010190602001808311611e9357829003601f168201915b505050505090806002018054600181600116156101000203166002900480601f016020809104026020016040519081016040528092919081815260200182805460018160011615610100020316600290048015611f4e5780601f10611f2357610100808354040283529160200191611f4e565b820191906000526020600020905b815481529060010190602001808311611f3157829003601f168201915b505050505090806003018054600181600116156101000203166002900480601f016020809104026020016040519081016040528092919081815260200182805460018160011615610100020316600290048015611fec5780601f10611fc157610100808354040283529160200191611fec565b820191906000526020600020905b815481529060010190602001808311611fcf57829003601f168201915b505050505090806004018054600181600116156101000203166002900480601f01602080910402602001604051908101604052809291908181526020018280546001816001161561010002031660029004801561208a5780601f1061205f5761010080835404028352916020019161208a565b820191906000526020600020905b81548152906001019060200180831161206d57829003601f168201915b505050505090806005015490806006018054600181600116156101000203166002900480601f01602080910402602001604051908101604052809291908181526020018280546001816001161561010002031660029004801561212e5780601f106121035761010080835404028352916020019161212e565b820191906000526020600020905b81548152906001019060200180831161211157829003601f168201915b505050505090806007018054600181600116156101000203166002900480601f0160208091040260200160405190810160405280929190818152602001828054600181600116156101000203166002900480156121cc5780601f106121a1576101008083540402835291602001916121cc565b820191906000526020600020905b8154815290600101906020018083116121af57829003601f168201915b505050505090806008018054600181600116156101000203166002900480601f01602080910402602001604051908101604052809291908181526020018280546001816001161561010002031660029004801561226a5780601f1061223f5761010080835404028352916020019161226a565b820191906000526020600020905b81548152906001019060200180831161224d57829003601f168201915b505050505090806009018054600181600116156101000203166002900480601f0160208091040260200160405190810160405280929190818152602001828054600181600116156101000203166002900480156123085780601f106122dd57610100808354040283529160200191612308565b820191906000526020600020905b8154815290600101906020018083116122eb57829003601f168201915b505050505090508a565b6000808154809291906001019190505550600060405180610140016040528060005481526020016040518060400160405280600381526020017f307830000000000000000000000000000000000000000000000000000000000081525081526020018a81526020018981526020018881526020018781526020018681526020018581526020018481526020018381525090508060036000805481526020019081526020016000206000820151816000015560208201518160010190805190602001906123df929190612b17565b5060408201518160020190805190602001906123fc929190612b17565b506060820151816003019080519060200190612419929190612b17565b506080820151816004019080519060200190612436929190612b17565b5060a0820151816005015560c082015181600601908051906020019061245d929190612b17565b5060e082015181600701556101008201518160080155610120820151816009019080519060200190612490929190612b17565b5090505060016008600086815260200190815260200160002060006101000a81548160ff021916908315150217905550505050505050505050565b600060036000805481526020019081526020016000206040518061014001604052908160008201548152602001600182018054600181600116156101000203166002900480601f0160208091040260200160405190810160405280929190818152602001828054600181600116156101000203166002900480156125905780601f1061256557610100808354040283529160200191612590565b820191906000526020600020905b81548152906001019060200180831161257357829003601f168201915b50505050508152602001600282018054600181600116156101000203166002900480601f0160208091040260200160405190810160405280929190818152602001828054600181600116156101000203166002900480156126325780601f1061260757610100808354040283529160200191612632565b820191906000526020600020905b81548152906001019060200180831161261557829003601f168201915b50505050508152602001600382018054600181600116156101000203166002900480601f0160208091040260200160405190810160405280929190818152602001828054600181600116156101000203166002900480156126d45780601f106126a9576101008083540402835291602001916126d4565b820191906000526020600020905b8154815290600101906020018083116126b757829003601f168201915b50505050508152602001600482018054600181600116156101000203166002900480601f0160208091040260200160405190810160405280929190818152602001828054600181600116156101000203166002900480156127765780601f1061274b57610100808354040283529160200191612776565b820191906000526020600020905b81548152906001019060200180831161275957829003601f168201915b5050505050815260200160058201548152602001600682018054600181600116156101000203166002900480601f0160208091040260200160405190810160405280929190818152602001828054600181600116156101000203166002900480156128225780601f106127f757610100808354040283529160200191612822565b820191906000526020600020905b81548152906001019060200180831161280557829003601f168201915b505050505081526020016007820154815260200160088201548152602001600982018054600181600116156101000203166002900480601f0160208091040260200160405190810160405280929190818152602001828054600181600116156101000203166002900480156128d85780601f106128ad576101008083540402835291602001916128d8565b820191906000526020600020905b8154815290600101906020018083116128bb57829003601f168201915b5050505050815250509050818160200181905250806003600080548152602001908152602001600020600082015181600001556020820151816001019080519060200190612927929190612b17565b506040820151816002019080519060200190612944929190612b17565b506060820151816003019080519060200190612961929190612b17565b50608082015181600401908051906020019061297e929190612b17565b5060a0820151816005015560c08201518160060190805190602001906129a5929190612b17565b5060e0820151816007015561010082015181600801556101208201518160090190805190602001906129d8929190612b17565b50905050806005836040516129ed919061364a565b9081526020016040518091039020600082015181600001556020820151816001019080519060200190612a21929190612b17565b506040820151816002019080519060200190612a3e929190612b17565b506060820151816003019080519060200190612a5b929190612b17565b506080820151816004019080519060200190612a78929190612b17565b5060a0820151816005015560c0820151816006019080519060200190612a9f929190612b17565b5060e082015181600701556101008201518160080155610120820151816009019080519060200190612ad2929190612b17565b509050506001600783604051612ae8919061364a565b908152602001604051809103902060006101000a81548160ff0219169083151502179055505050565b60015481565b828054600181600116156101000203166002900490600052602060002090601f016020900481019282612b4d5760008555612b94565b82601f10612b6657805160ff1916838001178555612b94565b82800160010185558215612b94579182015b82811115612b93578251825591602001919060010190612b78565b5b509050612ba19190612bf8565b5090565b604051806101400160405280600081526020016060815260200160608152602001606081526020016060815260200160008152602001606081526020016000815260200160008152602001606081525090565b5b80821115612c11576000816000905550600101612bf9565b5090565b6000612c28612c238461391b565b6138ea565b9050808382526020820190508260005b85811015612c685781358501612c4e8882612da0565b845260208401935060208301925050600181019050612c38565b5050509392505050565b6000612c85612c8084613947565b6138ea565b9050808382526020820190508260005b85811015612cc55781358501612cab8882612f22565b845260208401935060208301925050600181019050612c95565b5050509392505050565b6000612ce2612cdd84613973565b6138ea565b905082815260208101848484011115612cfa57600080fd5b612d05848285613a49565b509392505050565b600082601f830112612d1e57600080fd5b8135612d2e848260208601612c15565b91505092915050565b600082601f830112612d4857600080fd5b8135612d58848260208601612c72565b91505092915050565b600081359050612d7081613aa8565b92915050565b600082601f830112612d8757600080fd5b8135612d97848260208601612ccf565b91505092915050565b60006101408284031215612db357600080fd5b612dbe6101406138ea565b90506000612dce848285016130d4565b600083015250602082013567ffffffffffffffff811115612dee57600080fd5b612dfa84828501612d76565b602083015250604082013567ffffffffffffffff811115612e1a57600080fd5b612e2684828501612d76565b604083015250606082013567ffffffffffffffff811115612e4657600080fd5b612e5284828501612d76565b606083015250608082013567ffffffffffffffff811115612e7257600080fd5b612e7e84828501612d76565b60808301525060a0612e92848285016130d4565b60a08301525060c082013567ffffffffffffffff811115612eb257600080fd5b612ebe84828501612d76565b60c08301525060e0612ed2848285016130d4565b60e083015250610100612ee7848285016130d4565b6101008301525061012082013567ffffffffffffffff811115612f0957600080fd5b612f1584828501612d76565b6101208301525092915050565b60006101408284031215612f3557600080fd5b612f406101406138ea565b90506000612f50848285016130d4565b600083015250602082013567ffffffffffffffff811115612f7057600080fd5b612f7c84828501612d76565b602083015250604082013567ffffffffffffffff811115612f9c57600080fd5b612fa884828501612d76565b604083015250606082013567ffffffffffffffff811115612fc857600080fd5b612fd484828501612d76565b606083015250608082013567ffffffffffffffff811115612ff457600080fd5b61300084828501612d76565b60808301525060a0613014848285016130d4565b60a08301525060c082013567ffffffffffffffff81111561303457600080fd5b61304084828501612d76565b60c08301525060e082013567ffffffffffffffff81111561306057600080fd5b61306c84828501612d76565b60e08301525061010082013567ffffffffffffffff81111561308d57600080fd5b61309984828501612d76565b6101008301525061012082013567ffffffffffffffff8111156130bb57600080fd5b6130c784828501612d76565b6101208301525092915050565b6000813590506130e381613abf565b92915050565b6000813590506130f881613ad6565b92915050565b60006020828403121561311057600080fd5b600082013567ffffffffffffffff81111561312a57600080fd5b61313684828501612d0d565b91505092915050565b60006020828403121561315157600080fd5b600082013567ffffffffffffffff81111561316b57600080fd5b61317784828501612d37565b91505092915050565b60006020828403121561319257600080fd5b60006131a084828501612d61565b91505092915050565b6000602082840312156131bb57600080fd5b600082013567ffffffffffffffff8111156131d557600080fd5b6131e184828501612d76565b91505092915050565b600080600080600080600080610100898b03121561320757600080fd5b600089013567ffffffffffffffff81111561322157600080fd5b61322d8b828c01612d76565b985050602089013567ffffffffffffffff81111561324a57600080fd5b6132568b828c01612d76565b975050604089013567ffffffffffffffff81111561327357600080fd5b61327f8b828c01612d76565b96505060606132908b828c016130d4565b955050608089013567ffffffffffffffff8111156132ad57600080fd5b6132b98b828c01612d76565b94505060a06132ca8b828c016130d4565b93505060c06132db8b828c016130d4565b92505060e089013567ffffffffffffffff8111156132f857600080fd5b6133048b828c01612d76565b9150509295985092959890939650565b6000806040838503121561332757600080fd5b600083013567ffffffffffffffff81111561334157600080fd5b61334d85828601612d76565b925050602061335e858286016130d4565b9150509250929050565b60006020828403121561337a57600080fd5b6000613388848285016130d4565b91505092915050565b6000602082840312156133a357600080fd5b60006133b1848285016130e9565b91505092915050565b6133c3816139f0565b82525050565b6133d2816139fc565b82525050565b6133e181613a28565b82525050565b60006133f2826139b8565b6133fc81856139c3565b935061340c818560208601613a58565b61341581613a97565b840191505092915050565b600061342b826139b8565b61343581856139d4565b9350613445818560208601613a58565b61344e81613a97565b840191505092915050565b6000613464826139b8565b61346e81856139e5565b935061347e818560208601613a58565b80840191505092915050565b6000815460018116600081146134a757600181146134cc57613510565b607f60028304166134b881876139e5565b955060ff1983168652808601935050613510565b600282046134da81876139e5565b95506134e5856139a3565b60005b82811015613507578154818901526001820191506020810190506134e8565b82880195505050505b505092915050565b6000610140830160008301516135316000860182613615565b506020830151848203602086015261354982826133e7565b9150506040830151848203604086015261356382826133e7565b9150506060830151848203606086015261357d82826133e7565b9150506080830151848203608086015261359782826133e7565b91505060a08301516135ac60a0860182613615565b5060c083015184820360c08601526135c482826133e7565b91505060e08301516135d960e0860182613615565b506101008301516135ee610100860182613615565b5061012083015184820361012086015261360882826133e7565b9150508091505092915050565b61361e81613a32565b82525050565b61362d81613a32565b82525050565b61364461363f82613a32565b613a8b565b82525050565b60006136568284613459565b915081905092915050565b600061366d8285613459565b91506136798284613633565b6020820191508190509392505050565b6000613695828461348a565b915081905092915050565b60006020820190506136b560008301846133ba565b92915050565b60006020820190506136d060008301846133c9565b92915050565b60006020820190506136eb60008301846133d8565b92915050565b6000602082019050818103600083015261370b8184613420565b905092915050565b6000602082019050818103600083015261372d8184613518565b905092915050565b600060208201905061374a6000830184613624565b92915050565b600061014082019050613766600083018d613624565b8181036020830152613778818c613420565b9050818103604083015261378c818b613420565b905081810360608301526137a0818a613420565b905081810360808301526137b48189613420565b90506137c360a0830188613624565b81810360c08301526137d58187613420565b905081810360e08301526137e98186613420565b90508181036101008301526137fe8185613420565b90508181036101208301526138138184613420565b90509b9a5050505050505050505050565b60006101408201905061383a600083018d613624565b818103602083015261384c818c613420565b90508181036040830152613860818b613420565b90508181036060830152613874818a613420565b905081810360808301526138888189613420565b905061389760a0830188613624565b81810360c08301526138a98187613420565b90506138b860e0830186613624565b6138c6610100830185613624565b8181036101208301526138d98184613420565b90509b9a5050505050505050505050565b6000604051905081810181811067ffffffffffffffff8211171561391157613910613a95565b5b8060405250919050565b600067ffffffffffffffff82111561393657613935613a95565b5b602082029050602081019050919050565b600067ffffffffffffffff82111561396257613961613a95565b5b602082029050602081019050919050565b600067ffffffffffffffff82111561398e5761398d613a95565b5b601f19601f8301169050602081019050919050565b60008190508160005260206000209050919050565b600081519050919050565b600082825260208201905092915050565b600082825260208201905092915050565b600081905092915050565b60008115159050919050565b60007fff0000000000000000000000000000000000000000000000000000000000000082169050919050565b6000819050919050565b6000819050919050565b600060ff82169050919050565b82818337600083830152505050565b60005b83811015613a76578082015181840152602081019050613a5b565b83811115613a85576000848401525b50505050565b6000819050919050565bfe5b6000601f19601f8301169050919050565b613ab181613a28565b8114613abc57600080fd5b50565b613ac881613a32565b8114613ad357600080fd5b50565b613adf81613a3c565b8114613aea57600080fd5b5056fea2646970667358221220f9af7b440824c1c1ccfa6a35ea4569d50c2f64aa692ee5399b0109349260395164736f6c63430007060033",
  "immutableReferences": {},
  "source": "// SPDX-License-Identifier: MIT\r\npragma solidity >=0.4.21 <0.8.0;\r\npragma abicoder v2;\r\n\r\n// NFT smart contract inherits ERC721 interface\r\ncontract Ecertify {\r\n    // total number of NFT minted\r\n    uint256 public certificateCounter;\r\n    uint256 public eventCertificateCounter;\r\n    string convertedHash;\r\n\r\n    struct Certificate {\r\n        uint256 certid;\r\n        string transactionHash;\r\n        string name;\r\n        string course;\r\n        string email;\r\n        uint256 passoutYear;\r\n        string percentage;\r\n        uint256 SAP;\r\n        uint256 contact;\r\n        string issueDate;\r\n    }\r\n\r\n    struct EventCertificate {\r\n        uint256 certid;\r\n        string transactionHash;\r\n        string name;\r\n        string email;\r\n        string domain;\r\n        uint256 contact;\r\n        string eventName;\r\n        string eventType;\r\n        string eventDate;\r\n        string issueDate;\r\n    }\r\n\r\n    // map Certificates's id to Certificate\r\n    mapping(uint256 => Certificate) public allCertificates;\r\n\r\n    // map Certificates's id to Certificate\r\n    mapping(uint256 => EventCertificate) public allEventCertificates;\r\n\r\n    // map Certificates's hash to Certificate\r\n    mapping(string => Certificate) public allhashedCertificates;\r\n\r\n    // map Certificates's hash to Certificate\r\n    mapping(string => EventCertificate) public allhashedEventCertificates;\r\n\r\n    mapping(string => bool) public certficateHashExist;\r\n\r\n    mapping(uint256 => bool) public sapIdExist;\r\n\r\n    function addCertificate(\r\n        string memory _name,\r\n        string memory _course,\r\n        string memory _email,\r\n        uint256 _passoutYear,\r\n        string memory _percentage,\r\n        uint256 _SAP,\r\n        uint256 _phone,\r\n        string memory _issueDate\r\n    ) external {\r\n        certificateCounter++;\r\n        // require(!_exists(certificateCounter));\r\n\r\n        // create a new Certificate (struct) and pass in new values\r\n        Certificate memory newCert = Certificate(\r\n            certificateCounter,\r\n            \"0x0\",\r\n            _name,\r\n            _course,\r\n            _email,\r\n            _passoutYear,\r\n            _percentage,\r\n            _SAP,\r\n            _phone,\r\n            _issueDate\r\n        );\r\n        // add the id and it's certificate to allCertificate mapping\r\n        allCertificates[certificateCounter] = newCert;\r\n\r\n        sapIdExist[_SAP] = true;\r\n    }\r\n\r\n    function updateTransaction(string memory _transactionHash) external {\r\n        Certificate memory cert = allCertificates[certificateCounter];\r\n        cert.transactionHash = _transactionHash;\r\n        allCertificates[certificateCounter] = cert;\r\n        // add the hash value and it's certificate to allCertificate mapping\r\n        allhashedCertificates[_transactionHash] = cert;\r\n        certficateHashExist[_transactionHash] = true;\r\n    }\r\n\r\n    function getValueAtMapping(string memory userAddress)\r\n        public\r\n        view\r\n        returns (Certificate memory)\r\n    {\r\n        return allhashedCertificates[userAddress];\r\n    }\r\n\r\n    function bytes32ToString(bytes32 _bytes32)\r\n        public\r\n        pure\r\n        returns (string memory)\r\n    {\r\n        uint8 i = 0;\r\n        bytes memory bytesArray = new bytes(64);\r\n        for (i = 0; i < bytesArray.length; i++) {\r\n            uint8 _f = uint8(_bytes32[i / 2] & 0x0f);\r\n            uint8 _l = uint8(_bytes32[i / 2] >> 4);\r\n\r\n            bytesArray[i] = toByte(_f);\r\n            i = i + 1;\r\n            bytesArray[i] = toByte(_l);\r\n        }\r\n        return string(bytesArray);\r\n    }\r\n\r\n    function toByte(uint8 _uint8) public pure returns (bytes1) {\r\n        if (_uint8 < 10) {\r\n            return bytes1(_uint8 + 48);\r\n        } else {\r\n            return bytes1(_uint8 + 87);\r\n        }\r\n    }\r\n\r\n    function hash(string memory _string, uint256 _contact)\r\n        public\r\n        pure\r\n        returns (bytes32)\r\n    {\r\n        return keccak256(abi.encodePacked(_string, _contact));\r\n    }\r\n\r\n    function addInBulk(Certificate[] memory b) external {\r\n        for (uint256 index = 0; index < b.length; index++) {\r\n            certificateCounter++;\r\n            // require(!_exists(certificateCounter));\r\n            bytes32 unique = hash(b[index].name, b[index].contact);\r\n            convertedHash = bytes32ToString(unique);\r\n            // create a new Certificate (struct) and pass in new values\r\n            Certificate memory newCert = Certificate(\r\n                certificateCounter,\r\n                convertedHash,\r\n                b[index].name,\r\n                b[index].course,\r\n                b[index].email,\r\n                b[index].passoutYear,\r\n                b[index].percentage,\r\n                b[index].SAP,\r\n                b[index].contact,\r\n                b[index].issueDate\r\n            );\r\n            // add the id and it's certificate to allCertificate mapping\r\n            allCertificates[certificateCounter] = newCert;\r\n            certficateHashExist[convertedHash] = true;\r\n        }\r\n        //  allCertificatesInBulk[certificateCounter2] = b;\r\n    }\r\n\r\n    function addEventInBulk(EventCertificate[] memory b) external {\r\n        for (uint256 index = 0; index < b.length; index++) {\r\n            eventCertificateCounter++;\r\n            bytes32 unique = hash(b[index].name, b[index].contact);\r\n            convertedHash = bytes32ToString(unique);\r\n            // create a new Certificate (struct) and pass in new values\r\n            EventCertificate memory newCert = EventCertificate(\r\n                eventCertificateCounter,\r\n                convertedHash,\r\n                b[index].name,\r\n                b[index].email,\r\n                b[index].domain,\r\n                b[index].contact,\r\n                b[index].eventName,\r\n                b[index].eventType,\r\n                b[index].eventDate,\r\n                b[index].issueDate\r\n            );\r\n            // add the id and it's certificate to allCertificate mapping\r\n            allEventCertificates[eventCertificateCounter] = newCert;\r\n            certficateHashExist[convertedHash] = true;\r\n        }\r\n        //  allCertificatesInBulk[certificateCounter2] = b;\r\n    }\r\n}\r\n",
  "sourcePath": "C:\\Users\\Harsh\\Blockchain\\E-Certo\\src\\contracts\\Ecertify.sol",
  "compiler": {
    "name": "solc",
    "version": "0.7.6+commit.7338295f.Emscripten.clang"
  },
  "schemaVersion": "3.4.8",
  "updatedAt": "2022-10-05T01:48:33.037Z",
  "networkType": "ethereum",
  "devdoc": {
    "kind": "dev",
    "methods": {},
    "version": 1
  },
  "userdoc": {
    "kind": "user",
    "methods": {},
    "version": 1
  }
}